{
  "_format": "hh-sol-artifact-1",
  "contractName": "InternshipCertificationV2",
  "sourceName": "contracts/InternshipCertificationV2.sol",
  "abi": [
    {
      "inputs": [],
      "stateMutability": "nonpayable",
      "type": "constructor"
    },
    {
      "inputs": [],
      "name": "AccessControlBadConfirmation",
      "type": "error"
    },
    {
      "inputs": [
        {
          "internalType": "address",
          "name": "account",
          "type": "address"
        },
        {
          "internalType": "bytes32",
          "name": "neededRole",
          "type": "bytes32"
        }
      ],
      "name": "AccessControlUnauthorizedAccount",
      "type": "error"
    },
    {
      "inputs": [],
      "name": "EnforcedPause",
      "type": "error"
    },
    {
      "inputs": [],
      "name": "ExpectedPause",
      "type": "error"
    },
    {
      "inputs": [],
      "name": "ReentrancyGuardReentrantCall",
      "type": "error"
    },
    {
      "anonymous": false,
      "inputs": [
        {
          "indexed": true,
          "internalType": "bytes32",
          "name": "certHash",
          "type": "bytes32"
        },
        {
          "indexed": true,
          "internalType": "address",
          "name": "issuer",
          "type": "address"
        },
        {
          "indexed": true,
          "internalType": "address",
          "name": "student",
          "type": "address"
        },
        {
          "indexed": false,
          "internalType": "string",
          "name": "studentId",
          "type": "string"
        },
        {
          "indexed": false,
          "internalType": "uint256",
          "name": "timestamp",
          "type": "uint256"
        }
      ],
      "name": "CertificateCreated",
      "type": "event"
    },
    {
      "anonymous": false,
      "inputs": [
        {
          "indexed": true,
          "internalType": "bytes32",
          "name": "certHash",
          "type": "bytes32"
        },
        {
          "indexed": false,
          "internalType": "address",
          "name": "universityAddr",
          "type": "address"
        },
        {
          "indexed": false,
          "internalType": "address",
          "name": "companyAddr",
          "type": "address"
        },
        {
          "indexed": false,
          "internalType": "uint256",
          "name": "timestamp",
          "type": "uint256"
        }
      ],
      "name": "CertificateFinalized",
      "type": "event"
    },
    {
      "anonymous": false,
      "inputs": [
        {
          "indexed": true,
          "internalType": "bytes32",
          "name": "certHash",
          "type": "bytes32"
        },
        {
          "indexed": false,
          "internalType": "string",
          "name": "studentId",
          "type": "string"
        },
        {
          "indexed": false,
          "internalType": "uint256",
          "name": "timestamp",
          "type": "uint256"
        }
      ],
      "name": "CertificateRequestSubmitted",
      "type": "event"
    },
    {
      "anonymous": false,
      "inputs": [
        {
          "indexed": true,
          "internalType": "bytes32",
          "name": "certHash",
          "type": "bytes32"
        },
        {
          "indexed": true,
          "internalType": "address",
          "name": "revoker",
          "type": "address"
        },
        {
          "indexed": false,
          "internalType": "string",
          "name": "reason",
          "type": "string"
        },
        {
          "indexed": false,
          "internalType": "uint256",
          "name": "timestamp",
          "type": "uint256"
        }
      ],
      "name": "CertificateRevoked",
      "type": "event"
    },
    {
      "anonymous": false,
      "inputs": [
        {
          "indexed": true,
          "internalType": "bytes32",
          "name": "certHash",
          "type": "bytes32"
        },
        {
          "indexed": true,
          "internalType": "address",
          "name": "updater",
          "type": "address"
        },
        {
          "indexed": false,
          "internalType": "uint256",
          "name": "timestamp",
          "type": "uint256"
        }
      ],
      "name": "CertificateUpdated",
      "type": "event"
    },
    {
      "anonymous": false,
      "inputs": [
        {
          "indexed": true,
          "internalType": "bytes32",
          "name": "certHash",
          "type": "bytes32"
        },
        {
          "indexed": true,
          "internalType": "address",
          "name": "verifier",
          "type": "address"
        },
        {
          "indexed": false,
          "internalType": "bool",
          "name": "isValid",
          "type": "bool"
        },
        {
          "indexed": false,
          "internalType": "uint256",
          "name": "timestamp",
          "type": "uint256"
        }
      ],
      "name": "CertificateVerified",
      "type": "event"
    },
    {
      "anonymous": false,
      "inputs": [
        {
          "indexed": true,
          "internalType": "bytes32",
          "name": "certHash",
          "type": "bytes32"
        },
        {
          "indexed": true,
          "internalType": "address",
          "name": "confirmer",
          "type": "address"
        },
        {
          "indexed": false,
          "internalType": "string",
          "name": "role",
          "type": "string"
        },
        {
          "indexed": false,
          "internalType": "uint256",
          "name": "timestamp",
          "type": "uint256"
        }
      ],
      "name": "ConfirmationReceived",
      "type": "event"
    },
    {
      "anonymous": false,
      "inputs": [
        {
          "indexed": false,
          "internalType": "address",
          "name": "account",
          "type": "address"
        }
      ],
      "name": "Paused",
      "type": "event"
    },
    {
      "anonymous": false,
      "inputs": [
        {
          "indexed": true,
          "internalType": "bytes32",
          "name": "role",
          "type": "bytes32"
        },
        {
          "indexed": true,
          "internalType": "bytes32",
          "name": "previousAdminRole",
          "type": "bytes32"
        },
        {
          "indexed": true,
          "internalType": "bytes32",
          "name": "newAdminRole",
          "type": "bytes32"
        }
      ],
      "name": "RoleAdminChanged",
      "type": "event"
    },
    {
      "anonymous": false,
      "inputs": [
        {
          "indexed": true,
          "internalType": "bytes32",
          "name": "role",
          "type": "bytes32"
        },
        {
          "indexed": true,
          "internalType": "address",
          "name": "account",
          "type": "address"
        },
        {
          "indexed": true,
          "internalType": "address",
          "name": "sender",
          "type": "address"
        }
      ],
      "name": "RoleGranted",
      "type": "event"
    },
    {
      "anonymous": false,
      "inputs": [
        {
          "indexed": true,
          "internalType": "bytes32",
          "name": "role",
          "type": "bytes32"
        },
        {
          "indexed": true,
          "internalType": "address",
          "name": "account",
          "type": "address"
        },
        {
          "indexed": false,
          "internalType": "string",
          "name": "entityId",
          "type": "string"
        }
      ],
      "name": "RoleGrantedToEntity",
      "type": "event"
    },
    {
      "anonymous": false,
      "inputs": [
        {
          "indexed": true,
          "internalType": "bytes32",
          "name": "role",
          "type": "bytes32"
        },
        {
          "indexed": true,
          "internalType": "address",
          "name": "account",
          "type": "address"
        },
        {
          "indexed": true,
          "internalType": "address",
          "name": "sender",
          "type": "address"
        }
      ],
      "name": "RoleRevoked",
      "type": "event"
    },
    {
      "anonymous": false,
      "inputs": [
        {
          "indexed": false,
          "internalType": "address",
          "name": "account",
          "type": "address"
        }
      ],
      "name": "Unpaused",
      "type": "event"
    },
    {
      "inputs": [],
      "name": "ADMIN_ROLE",
      "outputs": [
        {
          "internalType": "bytes32",
          "name": "",
          "type": "bytes32"
        }
      ],
      "stateMutability": "view",
      "type": "function"
    },
    {
      "inputs": [],
      "name": "CERTIFICATE_VALIDITY_PERIOD",
      "outputs": [
        {
          "internalType": "uint256",
          "name": "",
          "type": "uint256"
        }
      ],
      "stateMutability": "view",
      "type": "function"
    },
    {
      "inputs": [],
      "name": "COMPANY_ROLE",
      "outputs": [
        {
          "internalType": "bytes32",
          "name": "",
          "type": "bytes32"
        }
      ],
      "stateMutability": "view",
      "type": "function"
    },
    {
      "inputs": [],
      "name": "DEFAULT_ADMIN_ROLE",
      "outputs": [
        {
          "internalType": "bytes32",
          "name": "",
          "type": "bytes32"
        }
      ],
      "stateMutability": "view",
      "type": "function"
    },
    {
      "inputs": [],
      "name": "UNIVERSITY_ROLE",
      "outputs": [
        {
          "internalType": "bytes32",
          "name": "",
          "type": "bytes32"
        }
      ],
      "stateMutability": "view",
      "type": "function"
    },
    {
      "inputs": [],
      "name": "activeCertificates",
      "outputs": [
        {
          "internalType": "uint256",
          "name": "",
          "type": "uint256"
        }
      ],
      "stateMutability": "view",
      "type": "function"
    },
    {
      "inputs": [
        {
          "internalType": "bytes32[]",
          "name": "_certHashes",
          "type": "bytes32[]"
        },
        {
          "internalType": "address[]",
          "name": "_students",
          "type": "address[]"
        },
        {
          "internalType": "string[]",
          "name": "_studentIds",
          "type": "string[]"
        },
        {
          "internalType": "string",
          "name": "_universityId",
          "type": "string"
        },
        {
          "internalType": "string",
          "name": "_companyId",
          "type": "string"
        },
        {
          "internalType": "uint256[]",
          "name": "_startDates",
          "type": "uint256[]"
        },
        {
          "internalType": "uint256[]",
          "name": "_endDates",
          "type": "uint256[]"
        }
      ],
      "name": "batchCreateCertificates",
      "outputs": [],
      "stateMutability": "nonpayable",
      "type": "function"
    },
    {
      "inputs": [
        {
          "internalType": "bytes32",
          "name": "",
          "type": "bytes32"
        }
      ],
      "name": "certificates",
      "outputs": [
        {
          "internalType": "bytes32",
          "name": "certHash",
          "type": "bytes32"
        },
        {
          "internalType": "address",
          "name": "issuer",
          "type": "address"
        },
        {
          "internalType": "enum InternshipCertificationV2.CertificateStatus",
          "name": "status",
          "type": "uint8"
        },
        {
          "internalType": "uint64",
          "name": "issueDate",
          "type": "uint64"
        },
        {
          "internalType": "address",
          "name": "student",
          "type": "address"
        },
        {
          "internalType": "uint64",
          "name": "startDate",
          "type": "uint64"
        },
        {
          "internalType": "uint64",
          "name": "endDate",
          "type": "uint64"
        },
        {
          "internalType": "uint64",
          "name": "createdAt",
          "type": "uint64"
        },
        {
          "internalType": "uint64",
          "name": "updatedAt",
          "type": "uint64"
        },
        {
          "internalType": "string",
          "name": "studentId",
          "type": "string"
        },
        {
          "internalType": "string",
          "name": "universityId",
          "type": "string"
        },
        {
          "internalType": "string",
          "name": "companyId",
          "type": "string"
        },
        {
          "internalType": "string",
          "name": "contentHash",
          "type": "string"
        }
      ],
      "stateMutability": "view",
      "type": "function"
    },
    {
      "inputs": [
        {
          "internalType": "bytes32",
          "name": "_certHash",
          "type": "bytes32"
        }
      ],
      "name": "companyConfirm",
      "outputs": [],
      "stateMutability": "nonpayable",
      "type": "function"
    },
    {
      "inputs": [
        {
          "internalType": "bytes32",
          "name": "_certHash",
          "type": "bytes32"
        },
        {
          "internalType": "address",
          "name": "_student",
          "type": "address"
        },
        {
          "internalType": "string",
          "name": "_studentId",
          "type": "string"
        },
        {
          "internalType": "string",
          "name": "_universityId",
          "type": "string"
        },
        {
          "internalType": "string",
          "name": "_companyId",
          "type": "string"
        },
        {
          "internalType": "uint256",
          "name": "_startDate",
          "type": "uint256"
        },
        {
          "internalType": "uint256",
          "name": "_endDate",
          "type": "uint256"
        },
        {
          "internalType": "string",
          "name": "_contentHash",
          "type": "string"
        }
      ],
      "name": "createCertificate",
      "outputs": [
        {
          "internalType": "bytes32",
          "name": "",
          "type": "bytes32"
        }
      ],
      "stateMutability": "nonpayable",
      "type": "function"
    },
    {
      "inputs": [
        {
          "internalType": "bytes32",
          "name": "role",
          "type": "bytes32"
        }
      ],
      "name": "getRoleAdmin",
      "outputs": [
        {
          "internalType": "bytes32",
          "name": "",
          "type": "bytes32"
        }
      ],
      "stateMutability": "view",
      "type": "function"
    },
    {
      "inputs": [],
      "name": "getStatistics",
      "outputs": [
        {
          "internalType": "uint256",
          "name": "total",
          "type": "uint256"
        },
        {
          "internalType": "uint256",
          "name": "active",
          "type": "uint256"
        },
        {
          "internalType": "uint256",
          "name": "revoked",
          "type": "uint256"
        }
      ],
      "stateMutability": "view",
      "type": "function"
    },
    {
      "inputs": [
        {
          "internalType": "address",
          "name": "_addr",
          "type": "address"
        },
        {
          "internalType": "string",
          "name": "_entityId",
          "type": "string"
        }
      ],
      "name": "grantCompanyRole",
      "outputs": [],
      "stateMutability": "nonpayable",
      "type": "function"
    },
    {
      "inputs": [
        {
          "internalType": "bytes32",
          "name": "role",
          "type": "bytes32"
        },
        {
          "internalType": "address",
          "name": "account",
          "type": "address"
        }
      ],
      "name": "grantRole",
      "outputs": [],
      "stateMutability": "nonpayable",
      "type": "function"
    },
    {
      "inputs": [
        {
          "internalType": "address",
          "name": "_addr",
          "type": "address"
        },
        {
          "internalType": "string",
          "name": "_entityId",
          "type": "string"
        }
      ],
      "name": "grantUniversityRole",
      "outputs": [],
      "stateMutability": "nonpayable",
      "type": "function"
    },
    {
      "inputs": [
        {
          "internalType": "bytes32",
          "name": "role",
          "type": "bytes32"
        },
        {
          "internalType": "address",
          "name": "account",
          "type": "address"
        }
      ],
      "name": "hasRole",
      "outputs": [
        {
          "internalType": "bool",
          "name": "",
          "type": "bool"
        }
      ],
      "stateMutability": "view",
      "type": "function"
    },
    {
      "inputs": [],
      "name": "pause",
      "outputs": [],
      "stateMutability": "nonpayable",
      "type": "function"
    },
    {
      "inputs": [],
      "name": "paused",
      "outputs": [
        {
          "internalType": "bool",
          "name": "",
          "type": "bool"
        }
      ],
      "stateMutability": "view",
      "type": "function"
    },
    {
      "inputs": [
        {
          "internalType": "bytes32",
          "name": "",
          "type": "bytes32"
        }
      ],
      "name": "pendingRequests",
      "outputs": [
        {
          "internalType": "bytes32",
          "name": "certHash",
          "type": "bytes32"
        },
        {
          "internalType": "string",
          "name": "studentId",
          "type": "string"
        },
        {
          "internalType": "string",
          "name": "universityId",
          "type": "string"
        },
        {
          "internalType": "string",
          "name": "companyId",
          "type": "string"
        },
        {
          "internalType": "uint64",
          "name": "startDate",
          "type": "uint64"
        },
        {
          "internalType": "uint64",
          "name": "endDate",
          "type": "uint64"
        },
        {
          "internalType": "string",
          "name": "contentHash",
          "type": "string"
        },
        {
          "internalType": "bool",
          "name": "universityConfirmed",
          "type": "bool"
        },
        {
          "internalType": "bool",
          "name": "companyConfirmed",
          "type": "bool"
        },
        {
          "internalType": "address",
          "name": "universityAddr",
          "type": "address"
        },
        {
          "internalType": "address",
          "name": "companyAddr",
          "type": "address"
        },
        {
          "internalType": "bool",
          "name": "finalized",
          "type": "bool"
        },
        {
          "internalType": "uint64",
          "name": "createdAt",
          "type": "uint64"
        }
      ],
      "stateMutability": "view",
      "type": "function"
    },
    {
      "inputs": [
        {
          "internalType": "bytes32",
          "name": "role",
          "type": "bytes32"
        },
        {
          "internalType": "address",
          "name": "callerConfirmation",
          "type": "address"
        }
      ],
      "name": "renounceRole",
      "outputs": [],
      "stateMutability": "nonpayable",
      "type": "function"
    },
    {
      "inputs": [
        {
          "internalType": "bytes32",
          "name": "_certHash",
          "type": "bytes32"
        },
        {
          "internalType": "string",
          "name": "_reason",
          "type": "string"
        }
      ],
      "name": "revokeCertificate",
      "outputs": [],
      "stateMutability": "nonpayable",
      "type": "function"
    },
    {
      "inputs": [
        {
          "internalType": "bytes32",
          "name": "role",
          "type": "bytes32"
        },
        {
          "internalType": "address",
          "name": "account",
          "type": "address"
        }
      ],
      "name": "revokeRole",
      "outputs": [],
      "stateMutability": "nonpayable",
      "type": "function"
    },
    {
      "inputs": [],
      "name": "revokedCertificates",
      "outputs": [
        {
          "internalType": "uint256",
          "name": "",
          "type": "uint256"
        }
      ],
      "stateMutability": "view",
      "type": "function"
    },
    {
      "inputs": [
        {
          "internalType": "bytes32",
          "name": "_certHash",
          "type": "bytes32"
        },
        {
          "internalType": "string",
          "name": "_studentId",
          "type": "string"
        },
        {
          "internalType": "string",
          "name": "_universityId",
          "type": "string"
        },
        {
          "internalType": "string",
          "name": "_companyId",
          "type": "string"
        },
        {
          "internalType": "uint256",
          "name": "_startDate",
          "type": "uint256"
        },
        {
          "internalType": "uint256",
          "name": "_endDate",
          "type": "uint256"
        },
        {
          "internalType": "string",
          "name": "_contentHash",
          "type": "string"
        }
      ],
      "name": "submitCertificateRequest",
      "outputs": [],
      "stateMutability": "nonpayable",
      "type": "function"
    },
    {
      "inputs": [
        {
          "internalType": "bytes4",
          "name": "interfaceId",
          "type": "bytes4"
        }
      ],
      "name": "supportsInterface",
      "outputs": [
        {
          "internalType": "bool",
          "name": "",
          "type": "bool"
        }
      ],
      "stateMutability": "view",
      "type": "function"
    },
    {
      "inputs": [],
      "name": "totalCertificates",
      "outputs": [
        {
          "internalType": "uint256",
          "name": "",
          "type": "uint256"
        }
      ],
      "stateMutability": "view",
      "type": "function"
    },
    {
      "inputs": [],
      "name": "unpause",
      "outputs": [],
      "stateMutability": "nonpayable",
      "type": "function"
    },
    {
      "inputs": [
        {
          "internalType": "bytes32",
          "name": "_certHash",
          "type": "bytes32"
        }
      ],
      "name": "verifyCertificate",
      "outputs": [
        {
          "internalType": "bool",
          "name": "isValid",
          "type": "bool"
        },
        {
          "components": [
            {
              "internalType": "bytes32",
              "name": "certHash",
              "type": "bytes32"
            },
            {
              "internalType": "address",
              "name": "issuer",
              "type": "address"
            },
            {
              "internalType": "enum InternshipCertificationV2.CertificateStatus",
              "name": "status",
              "type": "uint8"
            },
            {
              "internalType": "uint64",
              "name": "issueDate",
              "type": "uint64"
            },
            {
              "internalType": "address",
              "name": "student",
              "type": "address"
            },
            {
              "internalType": "uint64",
              "name": "startDate",
              "type": "uint64"
            },
            {
              "internalType": "uint64",
              "name": "endDate",
              "type": "uint64"
            },
            {
              "internalType": "uint64",
              "name": "createdAt",
              "type": "uint64"
            },
            {
              "internalType": "uint64",
              "name": "updatedAt",
              "type": "uint64"
            },
            {
              "internalType": "string",
              "name": "studentId",
              "type": "string"
            },
            {
              "internalType": "string",
              "name": "universityId",
              "type": "string"
            },
            {
              "internalType": "string",
              "name": "companyId",
              "type": "string"
            },
            {
              "internalType": "string",
              "name": "contentHash",
              "type": "string"
            }
          ],
          "internalType": "struct InternshipCertificationV2.Certificate",
          "name": "cert",
          "type": "tuple"
        },
        {
          "internalType": "bool",
          "name": "isExpired",
          "type": "bool"
        }
      ],
      "stateMutability": "view",
      "type": "function"
    },
    {
      "inputs": [
        {
          "internalType": "bytes32",
          "name": "_certHash",
          "type": "bytes32"
        },
        {
          "internalType": "string",
          "name": "_contentHash",
          "type": "string"
        }
      ],
      "name": "verifyContentIntegrity",
      "outputs": [
        {
          "internalType": "bool",
          "name": "",
          "type": "bool"
        }
      ],
      "stateMutability": "view",
      "type": "function"
    }
  ],
  "bytecode": "0x60806040523480156200001157600080fd5b5060016002556200002460003362000058565b50620000517fa49807205ce4d355092ef5a8a18f56e8913cf4a201fbe287825b095693c217753362000058565b5062000107565b6000828152602081815260408083206001600160a01b038516845290915281205460ff16620000fd576000838152602081815260408083206001600160a01b03861684529091529020805460ff19166001179055620000b43390565b6001600160a01b0316826001600160a01b0316847f2f8788117e7eff1d82e926ec794901d17c78024a50270940304540a733656f0d60405160405180910390a450600162000101565b5060005b92915050565b61317480620001176000396000f3fe608060405234801561001057600080fd5b50600436106101cf5760003560e01c8063596b772f116101045780638456cb59116100a257806391d148541161007157806391d1485414610400578063a217fddf14610413578063d547741f1461041b578063f561a8d91461042e57600080fd5b80638456cb59146103b0578063850c1768146103b85780638bbb2a99146103da5780638ccb28e9146103ed57600080fd5b80636af78abe116100de5780636af78abe14610353578063742f06881461035c57806375b238fc146103885780638261d2641461039d57600080fd5b8063596b772f1461032c5780635bf4adfb146103355780635c975abb1461034857600080fd5b806336568abe116101715780633f4ba83a1161014b5780633f4ba83a146102eb57806346278935146102f357806355d3aed11461030657806357f7c13d1461031957600080fd5b806336568abe1461029f578063372d6b27146102b25780633d178414146102d657600080fd5b80632795ad20116101ad5780632795ad20146102425780632d813acf1461026e5780632f2ff15d1461028357806334c89a831461029657600080fd5b806301ffc9a7146101d45780631c9ee11a146101fc578063248a9ca31461021f575b600080fd5b6101e76101e2366004612336565b610439565b60405190151581526020015b60405180910390f35b6102116000805160206130ff83398151915281565b6040519081526020016101f3565b61021161022d366004612367565b60009081526020819052604090206001015490565b610255610250366004612367565b610470565b6040516101f39d9c9b9a999897969594939291906123d0565b61028161027c366004612553565b610724565b005b610281610291366004612638565b610987565b61021160065481565b6102816102ad366004612638565b6109b2565b600554600654600754604080519384526020840192909252908201526060016101f3565b6102116000805160206130df83398151915281565b6102816109ea565b6102816103013660046127d3565b610a0d565b6101e76103143660046128de565b610e4c565b610281610327366004612367565b610f24565b61021160055481565b6102816103433660046128de565b61110d565b60015460ff166101e7565b61021160075481565b61036f61036a366004612367565b611306565b6040516101f39d9c9b9a9998979695949392919061295c565b61021160008051602061311f83398151915281565b6102116103ab366004612a41565b6115b5565b61028161192e565b6103cb6103c6366004612367565b61194e565b6040516101f393929190612b1b565b6102816103e8366004612c94565b611d40565b6102816103fb366004612c94565b611dc6565b6101e761040e366004612638565b611e3f565b610211600081565b610281610429366004612638565b611e68565b610211630966018081565b60006001600160e01b03198216637965db0b60e01b148061046a57506301ffc9a760e01b6001600160e01b03198316145b92915050565b6004602052600090815260409020805460018201805491929161049290612ccb565b80601f01602080910402602001604051908101604052809291908181526020018280546104be90612ccb565b801561050b5780601f106104e05761010080835404028352916020019161050b565b820191906000526020600020905b8154815290600101906020018083116104ee57829003601f168201915b50505050509080600201805461052090612ccb565b80601f016020809104026020016040519081016040528092919081815260200182805461054c90612ccb565b80156105995780601f1061056e57610100808354040283529160200191610599565b820191906000526020600020905b81548152906001019060200180831161057c57829003601f168201915b5050505050908060030180546105ae90612ccb565b80601f01602080910402602001604051908101604052809291908181526020018280546105da90612ccb565b80156106275780601f106105fc57610100808354040283529160200191610627565b820191906000526020600020905b81548152906001019060200180831161060a57829003601f168201915b50505050600483015460058401805493946001600160401b0380841695600160401b9094041693509161065990612ccb565b80601f016020809104026020016040519081016040528092919081815260200182805461068590612ccb565b80156106d25780601f106106a7576101008083540402835291602001916106d2565b820191906000526020600020905b8154815290600101906020018083116106b557829003601f168201915b505050506006830154600790930154919260ff808216936101008304821693506001600160a01b0362010000909304831692811691600160a01b820416906001600160401b03600160a81b909104168d565b61072c611e8d565b610734611eb3565b61074c60008051602061311f83398151915233611e3f565b8061076a575061076a6000805160206130df83398151915233611e3f565b61078f5760405162461bcd60e51b815260040161078690612d05565b60405180910390fd5b600087815260046020526040902060070154600160a81b90046001600160401b0316156107f75760405162461bcd60e51b81526020600482015260166024820152755265717565737420616c72656164792065786973747360501b6044820152606401610786565b6000878152600460205260409020878155600181016108168882612d7b565b50600281016108258782612d7b565b50600381016108348682612d7b565b506004810180546001600160401b03858116600160401b026fffffffffffffffffffffffffffffffff1990921690871617179055600581016108768382612d7b565b5060078101805467ffffffffffffffff60a81b1916600160a81b426001600160401b0316021790556108b66000805160206130df83398151915233611e3f565b1561093957600681018054620100003390810261ff01600160b01b03199092169190911760011790915560408051818152600a9181019190915269554e495645525349545960b01b606082015242602082015289907fbaf6cb8bb5b4864473028e02d71ffba757df6ca32d81e04c33662e807ca525679060800160405180910390a35b877f1ba5f0cdc658dd3cc140200dee1c29b46a8b255e9176dae1424fdb915b7e7002884260405161096b929190612e3a565b60405180910390a25061097e6001600255565b50505050505050565b6000828152602081905260409020600101546109a281611edb565b6109ac8383611ee5565b50505050565b6001600160a01b03811633146109db5760405163334bd91960e11b815260040160405180910390fd5b6109e58282611f77565b505050565b60008051602061311f833981519152610a0281611edb565b610a0a611fe2565b50565b610a15611e8d565b610a1d611eb3565b610a3560008051602061311f83398151915233611e3f565b80610a535750610a536000805160206130df83398151915233611e3f565b610a6f5760405162461bcd60e51b815260040161078690612d05565b8551875114610ab85760405162461bcd60e51b8152602060048201526015602482015274082e4e4c2f240d8cadccee8d040dad2e6dac2e8c6d605b1b6044820152606401610786565b601487511115610afd5760405162461bcd60e51b815260206004820152601060248201526f09ac2f040646040e0cae440c4c2e8c6d60831b6044820152606401610786565b60005b8751811015610e415760036000898381518110610b1f57610b1f612e5c565b6020026020010151815260200190815260200160002060030160089054906101000a90046001600160401b03166001600160401b0316600014610b955760405162461bcd60e51b815260206004820152600e60248201526d111d5c1b1a58d85d194818d95c9d60921b6044820152606401610786565b6000600360008a8481518110610bad57610bad612e5c565b602002602001015181526020019081526020016000209050888281518110610bd757610bd7612e5c565b602090810291909101015181556001810180546001600160a01b031916331790558751889083908110610c0c57610c0c612e5c565b60200260200101518160020160006101000a8154816001600160a01b0302191690836001600160a01b03160217905550868281518110610c4e57610c4e612e5c565b6020026020010151816004019081610c669190612d7b565b5060058101610c758782612d7b565b5060068101610c848682612d7b565b5060018101805467ffffffffffffffff60a81b1916600160a81b426001600160401b0316021790558351849083908110610cc057610cc0612e5c565b60200260200101518160020160146101000a8154816001600160401b0302191690836001600160401b03160217905550828281518110610d0257610d02612e5c565b602090810291909101015160038201805460018401805460ff60a01b1916600160a01b1790556001600160401b039283166001600160c01b031990911617600160401b429390931692830267ffffffffffffffff60801b191617600160801b9290920291909117905560058054906000610d7b83612e88565b909155505060068054906000610d9083612e88565b9190505550878281518110610da757610da7612e5c565b60200260200101516001600160a01b0316336001600160a01b03168a8481518110610dd457610dd4612e5c565b60200260200101517f04291c3e4d96a69b77175386c5338c47c3205824545194cbce54d745591f49fd8a8681518110610e0f57610e0f612e5c565b602002602001015142604051610e26929190612e3a565b60405180910390a45080610e3981612e88565b915050610b00565b5061097e6001600255565b6000828152600360208190526040822001548390600160401b90046001600160401b03168203610ebe5760405162461bcd60e51b815260206004820152601a60248201527f436572746966696361746520646f6573206e6f742065786973740000000000006044820152606401610786565b82604051602001610ecf9190612ea1565b60408051601f198184030181528282528051602091820120600088815260038352929092209192610f04926007019101612ebd565b604051602081830303815290604052805190602001201491505092915050565b610f2c611e8d565b610f34611eb3565b610f4c6000805160206130ff83398151915233611e3f565b610f985760405162461bcd60e51b815260206004820152601c60248201527f4e6f7420617574686f72697a65643a20434f4d50414e59206f6e6c79000000006044820152606401610786565b600081815260046020526040812060078101549091600160a81b9091046001600160401b031690036110005760405162461bcd60e51b815260206004820152601160248201527014995c5d595cdd081b9bdd08199bdd5b99607a1b6044820152606401610786565b6007810154600160a01b900460ff16156110505760405162461bcd60e51b8152602060048201526011602482015270105b1c9958591e48199a5b985b1a5e9959607a1b6044820152606401610786565b60068101805461ff0019166101001790556007810180546001600160a01b0319163390811790915560405183907fbaf6cb8bb5b4864473028e02d71ffba757df6ca32d81e04c33662e807ca52567906110ce904290604080825260079082015266434f4d50414e5960c81b6060820152602081019190915260800190565b60405180910390a3600681015460ff1680156110f357506006810154610100900460ff165b15611102576111028282612034565b50610a0a6001600255565b6000828152600360208190526040822001548391600160401b9091046001600160401b031690036111805760405162461bcd60e51b815260206004820152601a60248201527f436572746966696361746520646f6573206e6f742065786973740000000000006044820152606401610786565b60008381526003602052604090206001015483906001600160a01b03163314806111bd57506111bd60008051602061311f83398151915233611e3f565b6111d95760405162461bcd60e51b815260040161078690612d05565b6000848152600360205260409020600180820154600160a01b900460ff16600381111561120857611208612924565b146112555760405162461bcd60e51b815260206004820152601960248201527f4365727469666963617465206973206e6f7420616374697665000000000000006044820152606401610786565b60018101805460ff60a01b1916600160a11b17905560038101805467ffffffffffffffff60801b1916600160801b426001600160401b031602179055600680549060006112a183612f33565b9091555050600780549060006112b683612e88565b9190505550336001600160a01b0316857fba6b1f45b9140a00c5c5541e536fa1e9aff39c507267e24a5dfba0074f15aaca86426040516112f7929190612e3a565b60405180910390a35050505050565b60036020819052600091825260409091208054600182015460028301549383015460048401805493956001600160a01b0380851696600160a01b80870460ff1697600160a81b9097046001600160401b0390811697938516969190940484169484821694600160401b8304811694600160801b90930416929161138890612ccb565b80601f01602080910402602001604051908101604052809291908181526020018280546113b490612ccb565b80156114015780601f106113d657610100808354040283529160200191611401565b820191906000526020600020905b8154815290600101906020018083116113e457829003601f168201915b50505050509080600501805461141690612ccb565b80601f016020809104026020016040519081016040528092919081815260200182805461144290612ccb565b801561148f5780601f106114645761010080835404028352916020019161148f565b820191906000526020600020905b81548152906001019060200180831161147257829003601f168201915b5050505050908060060180546114a490612ccb565b80601f01602080910402602001604051908101604052809291908181526020018280546114d090612ccb565b801561151d5780601f106114f25761010080835404028352916020019161151d565b820191906000526020600020905b81548152906001019060200180831161150057829003601f168201915b50505050509080600701805461153290612ccb565b80601f016020809104026020016040519081016040528092919081815260200182805461155e90612ccb565b80156115ab5780601f10611580576101008083540402835291602001916115ab565b820191906000526020600020905b81548152906001019060200180831161158e57829003601f168201915b505050505090508d565b60006115bf611e8d565b6115c7611eb3565b6115df60008051602061311f83398151915233611e3f565b806115fd57506115fd6000805160206130df83398151915233611e3f565b8061161b575061161b6000805160206130ff83398151915233611e3f565b6116755760405162461bcd60e51b815260206004820152602560248201527f4e6f7420617574686f72697a656420746f206372656174652063657274696669604482015264636174657360d81b6064820152608401610786565b60008981526003602081905260409091200154600160401b90046001600160401b0316156116e55760405162461bcd60e51b815260206004820152601a60248201527f436572746966696361746520616c7265616479206578697374730000000000006044820152606401610786565b600087511161172c5760405162461bcd60e51b815260206004820152601360248201527214dd1d59195b9d081251081c995c5d5a5c9959606a1b6044820152606401610786565b8284106117705760405162461bcd60e51b8152602060048201526012602482015271496e76616c696420646174652072616e676560701b6044820152606401610786565b6000898152600360205260409020898155600181018054336001600160a01b0319918216179091556002820180549091166001600160a01b038b16179055600481016117bc8982612d7b565b50600581016117cb8882612d7b565b50600681016117da8782612d7b565b5060018101805460028301805467ffffffffffffffff60a01b1916600160a01b6001600160401b038a811682029290921790925560038501805467ffffffffffffffff191689831617905568ffffffffffffffffff60a01b19909216600160a81b429093169290920260ff60a01b1916919091171790556007810161185f8482612d7b565b50600381018054600160401b600160c01b031916600160401b426001600160401b031690810267ffffffffffffffff60801b191691909117600160801b91909102179055600580549060006118b383612e88565b9091555050600680549060006118c883612e88565b9190505550886001600160a01b0316336001600160a01b03168b7f04291c3e4d96a69b77175386c5338c47c3205824545194cbce54d745591f49fd8b42604051611913929190612e3a565b60405180910390a45050600160025550959695505050505050565b60008051602061311f83398151915261194681611edb565b610a0a61229b565b604080516101a08101825260008082526020820181905291810182905260608082018390526080820183905260a0820183905260c0820183905260e082018390526101008201839052610120820181905261014082018190526101608201819052610180820152600083815260036020818152604080842081516101a0810183528154815260018201546001600160a01b0381169482019490945293909291840191600160a01b900460ff1690811115611a0a57611a0a612924565b6003811115611a1b57611a1b612924565b815260018201546001600160401b03600160a81b9091048116602083015260028301546001600160a01b0381166040840152600160a01b90048116606083015260038301548082166080840152600160401b8104821660a0840152600160801b90041660c082015260048201805460e090920191611a9890612ccb565b80601f0160208091040260200160405190810160405280929190818152602001828054611ac490612ccb565b8015611b115780601f10611ae657610100808354040283529160200191611b11565b820191906000526020600020905b815481529060010190602001808311611af457829003601f168201915b50505050508152602001600582018054611b2a90612ccb565b80601f0160208091040260200160405190810160405280929190818152602001828054611b5690612ccb565b8015611ba35780601f10611b7857610100808354040283529160200191611ba3565b820191906000526020600020905b815481529060010190602001808311611b8657829003601f168201915b50505050508152602001600682018054611bbc90612ccb565b80601f0160208091040260200160405190810160405280929190818152602001828054611be890612ccb565b8015611c355780601f10611c0a57610100808354040283529160200191611c35565b820191906000526020600020905b815481529060010190602001808311611c1857829003601f168201915b50505050508152602001600782018054611c4e90612ccb565b80601f0160208091040260200160405190810160405280929190818152602001828054611c7a90612ccb565b8015611cc75780601f10611c9c57610100808354040283529160200191611cc7565b820191906000526020600020905b815481529060010190602001808311611caa57829003601f168201915b50505050508152505091508160e001516001600160401b0316600003611cf257506000915081611d39565b63096601808260c001516001600160401b0316611d0f9190612f4a565b42119050600182604001516003811115611d2b57611d2b612924565b148015611d36575080155b92505b9193909250565b60008051602061311f833981519152611d5881611edb565b611d706000805160206130df83398151915284611ee5565b50826001600160a01b03166000805160206130df8339815191527f7d97ae024533b28b4a3151fe793b98bf1e6f708138be69dd2eb9de4c53ae955484604051611db99190612f5d565b60405180910390a3505050565b60008051602061311f833981519152611dde81611edb565b611df66000805160206130ff83398151915284611ee5565b50826001600160a01b03166000805160206130ff8339815191527f7d97ae024533b28b4a3151fe793b98bf1e6f708138be69dd2eb9de4c53ae955484604051611db99190612f5d565b6000918252602082815260408084206001600160a01b0393909316845291905290205460ff1690565b600082815260208190526040902060010154611e8381611edb565b6109ac8383611f77565b60015460ff1615611eb15760405163d93c066560e01b815260040160405180910390fd5b565b6002805403611ed557604051633ee5aeb560e01b815260040160405180910390fd5b60028055565b610a0a81336122d6565b6000611ef18383611e3f565b611f6f576000838152602081815260408083206001600160a01b03861684529091529020805460ff19166001179055611f273390565b6001600160a01b0316826001600160a01b0316847f2f8788117e7eff1d82e926ec794901d17c78024a50270940304540a733656f0d60405160405180910390a450600161046a565b50600061046a565b6000611f838383611e3f565b15611f6f576000838152602081815260408083206001600160a01b0386168085529252808320805460ff1916905551339286917ff6391f5c32d9c69d2a47ea670b442974b53935d1edc7fd64eb21e047a839171b9190a450600161046a565b611fea612313565b6001805460ff191690557f5db9ee0a495bf2e6ff9c91a7834c1ba4fdd244a5e8aa4e537bd38aeae4b073aa335b6040516001600160a01b03909116815260200160405180910390a1565b600781018054600160a01b60ff60a01b199091161790556000828152600360205260409020828155600682015460018281018054620100009093046001600160a01b03166001600160a01b031993841617905560028301805490921690915560048201906120a490840182612f70565b50600581016120b66002840182612f70565b50600681016120c86003840182612f70565b50600180820180546001600160401b03428116600160a81b0267ffffffffffffffff60a81b19831681178455600487018054600288018054600160a01b928616830267ffffffffffffffff60a01b19909116179055905460038801805467ffffffffffffffff1916600160401b9092049094161790925560ff60a01b191668ffffffffffffffffff60a01b199092169190911790830217905550600781016121736005840182612f70565b50600381018054600160401b600160c01b031916600160401b426001600160401b031690810267ffffffffffffffff60801b191691909117600160801b91909102179055600580549060006121c783612e88565b9091555050600680549060006121dc83612e88565b909155505060068201546040516000916201000090046001600160a01b03169085907f04291c3e4d96a69b77175386c5338c47c3205824545194cbce54d745591f49fd90612230906001880190429061304a565b60405180910390a46006820154600783015460408051620100009093046001600160a01b0390811684529091166020830152429082015283907ff0525457752a02801a4289371708b8d5b19c012e81523f063ba23cd2920b1f089060600160405180910390a2505050565b6122a3611e8d565b6001805460ff1916811790557f62e78cea01bee320cd4e420270b5ea74000d11b0c9f74754ebdbfc544b05a25833612017565b6122e08282611e3f565b61230f5760405163e2517d3f60e01b81526001600160a01b038216600482015260248101839052604401610786565b5050565b60015460ff16611eb157604051638dfc202b60e01b815260040160405180910390fd5b60006020828403121561234857600080fd5b81356001600160e01b03198116811461236057600080fd5b9392505050565b60006020828403121561237957600080fd5b5035919050565b60005b8381101561239b578181015183820152602001612383565b50506000910152565b600081518084526123bc816020860160208601612380565b601f01601f19169290920160200192915050565b8d81526101a0602082015260006123eb6101a083018f6123a4565b82810360408401526123fd818f6123a4565b90508281036060840152612411818e6123a4565b6001600160401b038d16608085015290506001600160401b038b1660a084015282810360c0840152612443818b6123a4565b91505061245460e083018915159052565b9515156101008201526001600160a01b039485166101208201529290931661014083015215156101608201526001600160401b039091166101809091015298975050505050505050565b634e487b7160e01b600052604160045260246000fd5b604051601f8201601f191681016001600160401b03811182821017156124dc576124dc61249e565b604052919050565b600082601f8301126124f557600080fd5b81356001600160401b0381111561250e5761250e61249e565b612521601f8201601f19166020016124b4565b81815284602083860101111561253657600080fd5b816020850160208301376000918101602001919091529392505050565b600080600080600080600060e0888a03121561256e57600080fd5b8735965060208801356001600160401b038082111561258c57600080fd5b6125988b838c016124e4565b975060408a01359150808211156125ae57600080fd5b6125ba8b838c016124e4565b965060608a01359150808211156125d057600080fd5b6125dc8b838c016124e4565b955060808a0135945060a08a0135935060c08a013591508082111561260057600080fd5b5061260d8a828b016124e4565b91505092959891949750929550565b80356001600160a01b038116811461263357600080fd5b919050565b6000806040838503121561264b57600080fd5b8235915061265b6020840161261c565b90509250929050565b60006001600160401b0382111561267d5761267d61249e565b5060051b60200190565b600082601f83011261269857600080fd5b813560206126ad6126a883612664565b6124b4565b82815260059290921b840181019181810190868411156126cc57600080fd5b8286015b848110156126e757803583529183019183016126d0565b509695505050505050565b600082601f83011261270357600080fd5b813560206127136126a883612664565b82815260059290921b8401810191818101908684111561273257600080fd5b8286015b848110156126e7576127478161261c565b8352918301918301612736565b600082601f83011261276557600080fd5b813560206127756126a883612664565b82815260059290921b8401810191818101908684111561279457600080fd5b8286015b848110156126e75780356001600160401b038111156127b75760008081fd5b6127c58986838b01016124e4565b845250918301918301612798565b600080600080600080600060e0888a0312156127ee57600080fd5b87356001600160401b038082111561280557600080fd5b6128118b838c01612687565b985060208a013591508082111561282757600080fd5b6128338b838c016126f2565b975060408a013591508082111561284957600080fd5b6128558b838c01612754565b965060608a013591508082111561286b57600080fd5b6128778b838c016124e4565b955060808a013591508082111561288d57600080fd5b6128998b838c016124e4565b945060a08a01359150808211156128af57600080fd5b6128bb8b838c01612687565b935060c08a01359150808211156128d157600080fd5b5061260d8a828b01612687565b600080604083850312156128f157600080fd5b8235915060208301356001600160401b0381111561290e57600080fd5b61291a858286016124e4565b9150509250929050565b634e487b7160e01b600052602160045260246000fd5b6004811061295857634e487b7160e01b600052602160045260246000fd5b9052565b8d81526001600160a01b038d16602082015261297b604082018d61293a565b6001600160401b038b1660608201526001600160a01b038a1660808201526001600160401b03891660a08201526001600160401b03881660c08201526001600160401b03871660e08201526001600160401b0386166101008201526101a061012082015260006129ef6101a08301876123a4565b828103610140840152612a0281876123a4565b9050828103610160840152612a1781866123a4565b9050828103610180840152612a2c81856123a4565b9150509e9d5050505050505050505050505050565b600080600080600080600080610100898b031215612a5e57600080fd5b88359750612a6e60208a0161261c565b965060408901356001600160401b0380821115612a8a57600080fd5b612a968c838d016124e4565b975060608b0135915080821115612aac57600080fd5b612ab88c838d016124e4565b965060808b0135915080821115612ace57600080fd5b612ada8c838d016124e4565b955060a08b0135945060c08b0135935060e08b0135915080821115612afe57600080fd5b50612b0b8b828c016124e4565b9150509295985092959890939650565b8315158152606060208201528251606082015260006020840151612b4a60808401826001600160a01b03169052565b506040840151612b5d60a084018261293a565b5060608401516001600160401b03811660c08401525060808401516001600160a01b03811660e08401525060a0840151610100612ba4818501836001600160401b03169052565b60c08601519150610120612bc2818601846001600160401b03169052565b60e08701519250610140612be0818701856001600160401b03169052565b91870151925061016091612bfe868401856001600160401b03169052565b8188015193506101a091506101808281880152612c1f6102008801866123a4565b9450818901519150605f19808887030184890152612c3d86846123a4565b948a015188860382016101c08a0152949550612c5986866123a4565b9550818a0151945080888703016101e089015250505050612c7a82826123a4565b92505050612c8c604083018415159052565b949350505050565b60008060408385031215612ca757600080fd5b612cb08361261c565b915060208301356001600160401b0381111561290e57600080fd5b600181811c90821680612cdf57607f821691505b602082108103612cff57634e487b7160e01b600052602260045260246000fd5b50919050565b6020808252600e908201526d139bdd08185d5d1a1bdc9a5e995960921b604082015260600190565b601f8211156109e557600081815260208120601f850160051c81016020861015612d545750805b601f850160051c820191505b81811015612d7357828155600101612d60565b505050505050565b81516001600160401b03811115612d9457612d9461249e565b612da881612da28454612ccb565b84612d2d565b602080601f831160018114612ddd5760008415612dc55750858301515b600019600386901b1c1916600185901b178555612d73565b600085815260208120601f198616915b82811015612e0c57888601518255948401946001909101908401612ded565b5085821015612e2a5787850151600019600388901b60f8161c191681555b5050505050600190811b01905550565b604081526000612e4d60408301856123a4565b90508260208301529392505050565b634e487b7160e01b600052603260045260246000fd5b634e487b7160e01b600052601160045260246000fd5b600060018201612e9a57612e9a612e72565b5060010190565b60008251612eb3818460208701612380565b9190910192915050565b6000808354612ecb81612ccb565b60018281168015612ee35760018114612ef857612f27565b60ff1984168752821515830287019450612f27565b8760005260208060002060005b85811015612f1e5781548a820152908401908201612f05565b50505082870194505b50929695505050505050565b600081612f4257612f42612e72565b506000190190565b8082018082111561046a5761046a612e72565b60208152600061236060208301846123a4565b818103612f7b575050565b612f858254612ccb565b6001600160401b03811115612f9c57612f9c61249e565b612faa81612da28454612ccb565b6000601f821160018114612fde5760008315612fc65750848201545b600019600385901b1c1916600184901b178455613043565b600085815260209020601f19841690600086815260209020845b838110156130185782860154825560019586019590910190602001612ff8565b50858310156130365781850154600019600388901b60f8161c191681555b50505060018360011b0184555b5050505050565b60408152600080845461305c81612ccb565b806040860152606060018084166000811461307e5760018114613098576130c9565b60ff1985168884015283151560051b8801830195506130c9565b8960005260208060002060005b868110156130c05781548b82018701529084019082016130a5565b8a018501975050505b5050505050602092909201929092529291505056fe5bb0bf1fabd5e975fc7a4520766d9e86e0eb281f8c7c44fcd3dfe60a11e786ca9e1688b53537f356172ce07f39e129155063957163c5f9462d4d9e55b228b06ca49807205ce4d355092ef5a8a18f56e8913cf4a201fbe287825b095693c21775a2646970667358221220e65288d6c6c4fda03b1c57bfdb90a6f6e94f1e57e029b22c8eb07c427559297e64736f6c63430008140033",
  "linkReferences": {},
  "deployedLinkReferences": {}
}