{
  "_format": "hh-sol-artifact-1",
  "contractName": "InternshipCertificationV2",
  "sourceName": "contracts/InternshipCertificationV2.sol",
  "abi": [
    {
      "inputs": [],
      "stateMutability": "nonpayable",
      "type": "constructor"
    },
    {
      "inputs": [],
      "name": "AccessControlBadConfirmation",
      "type": "error"
    },
    {
      "inputs": [
        {
          "internalType": "address",
          "name": "account",
          "type": "address"
        },
        {
          "internalType": "bytes32",
          "name": "neededRole",
          "type": "bytes32"
        }
      ],
      "name": "AccessControlUnauthorizedAccount",
      "type": "error"
    },
    {
      "inputs": [],
      "name": "EnforcedPause",
      "type": "error"
    },
    {
      "inputs": [],
      "name": "ExpectedPause",
      "type": "error"
    },
    {
      "inputs": [],
      "name": "ReentrancyGuardReentrantCall",
      "type": "error"
    },
    {
      "anonymous": false,
      "inputs": [
        {
          "indexed": true,
          "internalType": "bytes32",
          "name": "certHash",
          "type": "bytes32"
        },
        {
          "indexed": true,
          "internalType": "address",
          "name": "issuer",
          "type": "address"
        },
        {
          "indexed": true,
          "internalType": "address",
          "name": "student",
          "type": "address"
        },
        {
          "indexed": false,
          "internalType": "bytes32",
          "name": "studentId",
          "type": "bytes32"
        },
        {
          "indexed": false,
          "internalType": "bytes32",
          "name": "universityId",
          "type": "bytes32"
        },
        {
          "indexed": false,
          "internalType": "bytes32",
          "name": "companyId",
          "type": "bytes32"
        },
        {
          "indexed": false,
          "internalType": "uint256",
          "name": "timestamp",
          "type": "uint256"
        }
      ],
      "name": "CertificateCreated",
      "type": "event"
    },
    {
      "anonymous": false,
      "inputs": [
        {
          "indexed": true,
          "internalType": "bytes32",
          "name": "certHash",
          "type": "bytes32"
        },
        {
          "indexed": false,
          "internalType": "address",
          "name": "universityAddr",
          "type": "address"
        },
        {
          "indexed": false,
          "internalType": "address",
          "name": "companyAddr",
          "type": "address"
        },
        {
          "indexed": false,
          "internalType": "uint256",
          "name": "timestamp",
          "type": "uint256"
        }
      ],
      "name": "CertificateFinalized",
      "type": "event"
    },
    {
      "anonymous": false,
      "inputs": [
        {
          "indexed": true,
          "internalType": "bytes32",
          "name": "certHash",
          "type": "bytes32"
        },
        {
          "indexed": false,
          "internalType": "bytes32",
          "name": "studentId",
          "type": "bytes32"
        },
        {
          "indexed": false,
          "internalType": "uint256",
          "name": "timestamp",
          "type": "uint256"
        }
      ],
      "name": "CertificateRequestSubmitted",
      "type": "event"
    },
    {
      "anonymous": false,
      "inputs": [
        {
          "indexed": true,
          "internalType": "bytes32",
          "name": "certHash",
          "type": "bytes32"
        },
        {
          "indexed": true,
          "internalType": "address",
          "name": "revoker",
          "type": "address"
        },
        {
          "indexed": false,
          "internalType": "string",
          "name": "reason",
          "type": "string"
        },
        {
          "indexed": false,
          "internalType": "uint256",
          "name": "timestamp",
          "type": "uint256"
        }
      ],
      "name": "CertificateRevoked",
      "type": "event"
    },
    {
      "anonymous": false,
      "inputs": [
        {
          "indexed": true,
          "internalType": "bytes32",
          "name": "certHash",
          "type": "bytes32"
        },
        {
          "indexed": true,
          "internalType": "address",
          "name": "updater",
          "type": "address"
        },
        {
          "indexed": false,
          "internalType": "uint256",
          "name": "timestamp",
          "type": "uint256"
        }
      ],
      "name": "CertificateUpdated",
      "type": "event"
    },
    {
      "anonymous": false,
      "inputs": [
        {
          "indexed": true,
          "internalType": "bytes32",
          "name": "certHash",
          "type": "bytes32"
        },
        {
          "indexed": true,
          "internalType": "address",
          "name": "verifier",
          "type": "address"
        },
        {
          "indexed": false,
          "internalType": "bool",
          "name": "isValid",
          "type": "bool"
        },
        {
          "indexed": false,
          "internalType": "uint256",
          "name": "timestamp",
          "type": "uint256"
        }
      ],
      "name": "CertificateVerified",
      "type": "event"
    },
    {
      "anonymous": false,
      "inputs": [
        {
          "indexed": true,
          "internalType": "bytes32",
          "name": "certHash",
          "type": "bytes32"
        },
        {
          "indexed": true,
          "internalType": "address",
          "name": "confirmer",
          "type": "address"
        },
        {
          "indexed": false,
          "internalType": "string",
          "name": "role",
          "type": "string"
        },
        {
          "indexed": false,
          "internalType": "uint256",
          "name": "timestamp",
          "type": "uint256"
        }
      ],
      "name": "ConfirmationReceived",
      "type": "event"
    },
    {
      "anonymous": false,
      "inputs": [
        {
          "indexed": false,
          "internalType": "address",
          "name": "account",
          "type": "address"
        }
      ],
      "name": "Paused",
      "type": "event"
    },
    {
      "anonymous": false,
      "inputs": [
        {
          "indexed": true,
          "internalType": "bytes32",
          "name": "role",
          "type": "bytes32"
        },
        {
          "indexed": true,
          "internalType": "bytes32",
          "name": "previousAdminRole",
          "type": "bytes32"
        },
        {
          "indexed": true,
          "internalType": "bytes32",
          "name": "newAdminRole",
          "type": "bytes32"
        }
      ],
      "name": "RoleAdminChanged",
      "type": "event"
    },
    {
      "anonymous": false,
      "inputs": [
        {
          "indexed": true,
          "internalType": "bytes32",
          "name": "role",
          "type": "bytes32"
        },
        {
          "indexed": true,
          "internalType": "address",
          "name": "account",
          "type": "address"
        },
        {
          "indexed": true,
          "internalType": "address",
          "name": "sender",
          "type": "address"
        }
      ],
      "name": "RoleGranted",
      "type": "event"
    },
    {
      "anonymous": false,
      "inputs": [
        {
          "indexed": true,
          "internalType": "bytes32",
          "name": "role",
          "type": "bytes32"
        },
        {
          "indexed": true,
          "internalType": "address",
          "name": "account",
          "type": "address"
        },
        {
          "indexed": false,
          "internalType": "bytes32",
          "name": "entityId",
          "type": "bytes32"
        }
      ],
      "name": "RoleGrantedToEntity",
      "type": "event"
    },
    {
      "anonymous": false,
      "inputs": [
        {
          "indexed": true,
          "internalType": "bytes32",
          "name": "role",
          "type": "bytes32"
        },
        {
          "indexed": true,
          "internalType": "address",
          "name": "account",
          "type": "address"
        },
        {
          "indexed": true,
          "internalType": "address",
          "name": "sender",
          "type": "address"
        }
      ],
      "name": "RoleRevoked",
      "type": "event"
    },
    {
      "anonymous": false,
      "inputs": [
        {
          "indexed": false,
          "internalType": "address",
          "name": "account",
          "type": "address"
        }
      ],
      "name": "Unpaused",
      "type": "event"
    },
    {
      "inputs": [],
      "name": "ADMIN_ROLE",
      "outputs": [
        {
          "internalType": "bytes32",
          "name": "",
          "type": "bytes32"
        }
      ],
      "stateMutability": "view",
      "type": "function"
    },
    {
      "inputs": [],
      "name": "CERTIFICATE_VALIDITY_PERIOD",
      "outputs": [
        {
          "internalType": "uint256",
          "name": "",
          "type": "uint256"
        }
      ],
      "stateMutability": "view",
      "type": "function"
    },
    {
      "inputs": [],
      "name": "COMPANY_ROLE",
      "outputs": [
        {
          "internalType": "bytes32",
          "name": "",
          "type": "bytes32"
        }
      ],
      "stateMutability": "view",
      "type": "function"
    },
    {
      "inputs": [],
      "name": "DEFAULT_ADMIN_ROLE",
      "outputs": [
        {
          "internalType": "bytes32",
          "name": "",
          "type": "bytes32"
        }
      ],
      "stateMutability": "view",
      "type": "function"
    },
    {
      "inputs": [],
      "name": "UNIVERSITY_ROLE",
      "outputs": [
        {
          "internalType": "bytes32",
          "name": "",
          "type": "bytes32"
        }
      ],
      "stateMutability": "view",
      "type": "function"
    },
    {
      "inputs": [],
      "name": "activeCertificates",
      "outputs": [
        {
          "internalType": "uint256",
          "name": "",
          "type": "uint256"
        }
      ],
      "stateMutability": "view",
      "type": "function"
    },
    {
      "inputs": [
        {
          "internalType": "bytes32",
          "name": "",
          "type": "bytes32"
        }
      ],
      "name": "certificates",
      "outputs": [
        {
          "internalType": "bytes32",
          "name": "certHash",
          "type": "bytes32"
        },
        {
          "internalType": "address",
          "name": "issuer",
          "type": "address"
        },
        {
          "internalType": "enum InternshipCertificationV2.CertificateStatus",
          "name": "status",
          "type": "uint8"
        },
        {
          "internalType": "uint64",
          "name": "issueDate",
          "type": "uint64"
        },
        {
          "internalType": "address",
          "name": "student",
          "type": "address"
        },
        {
          "internalType": "uint64",
          "name": "startDate",
          "type": "uint64"
        },
        {
          "internalType": "uint64",
          "name": "endDate",
          "type": "uint64"
        },
        {
          "internalType": "uint64",
          "name": "createdAt",
          "type": "uint64"
        },
        {
          "internalType": "uint64",
          "name": "updatedAt",
          "type": "uint64"
        },
        {
          "internalType": "bytes32",
          "name": "studentId",
          "type": "bytes32"
        },
        {
          "internalType": "bytes32",
          "name": "universityId",
          "type": "bytes32"
        },
        {
          "internalType": "bytes32",
          "name": "companyId",
          "type": "bytes32"
        },
        {
          "internalType": "string",
          "name": "contentHash",
          "type": "string"
        }
      ],
      "stateMutability": "view",
      "type": "function"
    },
    {
      "inputs": [
        {
          "internalType": "bytes32",
          "name": "_certHash",
          "type": "bytes32"
        }
      ],
      "name": "companyConfirm",
      "outputs": [],
      "stateMutability": "nonpayable",
      "type": "function"
    },
    {
      "inputs": [
        {
          "internalType": "bytes32",
          "name": "_certHash",
          "type": "bytes32"
        },
        {
          "internalType": "address",
          "name": "_student",
          "type": "address"
        },
        {
          "internalType": "bytes32",
          "name": "_studentId",
          "type": "bytes32"
        },
        {
          "internalType": "bytes32",
          "name": "_universityId",
          "type": "bytes32"
        },
        {
          "internalType": "bytes32",
          "name": "_companyId",
          "type": "bytes32"
        },
        {
          "internalType": "uint256",
          "name": "_startDate",
          "type": "uint256"
        },
        {
          "internalType": "uint256",
          "name": "_endDate",
          "type": "uint256"
        },
        {
          "internalType": "string",
          "name": "_contentHash",
          "type": "string"
        }
      ],
      "name": "createCertificate",
      "outputs": [
        {
          "internalType": "bytes32",
          "name": "",
          "type": "bytes32"
        }
      ],
      "stateMutability": "nonpayable",
      "type": "function"
    },
    {
      "inputs": [
        {
          "internalType": "bytes32",
          "name": "role",
          "type": "bytes32"
        }
      ],
      "name": "getRoleAdmin",
      "outputs": [
        {
          "internalType": "bytes32",
          "name": "",
          "type": "bytes32"
        }
      ],
      "stateMutability": "view",
      "type": "function"
    },
    {
      "inputs": [],
      "name": "getStatistics",
      "outputs": [
        {
          "internalType": "uint256",
          "name": "total",
          "type": "uint256"
        },
        {
          "internalType": "uint256",
          "name": "active",
          "type": "uint256"
        },
        {
          "internalType": "uint256",
          "name": "revoked",
          "type": "uint256"
        }
      ],
      "stateMutability": "view",
      "type": "function"
    },
    {
      "inputs": [
        {
          "internalType": "address",
          "name": "_addr",
          "type": "address"
        },
        {
          "internalType": "bytes32",
          "name": "_entityId",
          "type": "bytes32"
        }
      ],
      "name": "grantCompanyRole",
      "outputs": [],
      "stateMutability": "nonpayable",
      "type": "function"
    },
    {
      "inputs": [
        {
          "internalType": "bytes32",
          "name": "role",
          "type": "bytes32"
        },
        {
          "internalType": "address",
          "name": "account",
          "type": "address"
        }
      ],
      "name": "grantRole",
      "outputs": [],
      "stateMutability": "nonpayable",
      "type": "function"
    },
    {
      "inputs": [
        {
          "internalType": "address",
          "name": "_addr",
          "type": "address"
        },
        {
          "internalType": "bytes32",
          "name": "_entityId",
          "type": "bytes32"
        }
      ],
      "name": "grantUniversityRole",
      "outputs": [],
      "stateMutability": "nonpayable",
      "type": "function"
    },
    {
      "inputs": [
        {
          "internalType": "bytes32",
          "name": "role",
          "type": "bytes32"
        },
        {
          "internalType": "address",
          "name": "account",
          "type": "address"
        }
      ],
      "name": "hasRole",
      "outputs": [
        {
          "internalType": "bool",
          "name": "",
          "type": "bool"
        }
      ],
      "stateMutability": "view",
      "type": "function"
    },
    {
      "inputs": [],
      "name": "pause",
      "outputs": [],
      "stateMutability": "nonpayable",
      "type": "function"
    },
    {
      "inputs": [],
      "name": "paused",
      "outputs": [
        {
          "internalType": "bool",
          "name": "",
          "type": "bool"
        }
      ],
      "stateMutability": "view",
      "type": "function"
    },
    {
      "inputs": [
        {
          "internalType": "bytes32",
          "name": "",
          "type": "bytes32"
        }
      ],
      "name": "pendingRequests",
      "outputs": [
        {
          "internalType": "bytes32",
          "name": "certHash",
          "type": "bytes32"
        },
        {
          "internalType": "bytes32",
          "name": "studentId",
          "type": "bytes32"
        },
        {
          "internalType": "bytes32",
          "name": "universityId",
          "type": "bytes32"
        },
        {
          "internalType": "bytes32",
          "name": "companyId",
          "type": "bytes32"
        },
        {
          "internalType": "uint64",
          "name": "startDate",
          "type": "uint64"
        },
        {
          "internalType": "uint64",
          "name": "endDate",
          "type": "uint64"
        },
        {
          "internalType": "string",
          "name": "contentHash",
          "type": "string"
        },
        {
          "internalType": "bool",
          "name": "universityConfirmed",
          "type": "bool"
        },
        {
          "internalType": "bool",
          "name": "companyConfirmed",
          "type": "bool"
        },
        {
          "internalType": "address",
          "name": "universityAddr",
          "type": "address"
        },
        {
          "internalType": "address",
          "name": "companyAddr",
          "type": "address"
        },
        {
          "internalType": "bool",
          "name": "finalized",
          "type": "bool"
        },
        {
          "internalType": "uint64",
          "name": "createdAt",
          "type": "uint64"
        }
      ],
      "stateMutability": "view",
      "type": "function"
    },
    {
      "inputs": [
        {
          "internalType": "bytes32",
          "name": "role",
          "type": "bytes32"
        },
        {
          "internalType": "address",
          "name": "callerConfirmation",
          "type": "address"
        }
      ],
      "name": "renounceRole",
      "outputs": [],
      "stateMutability": "nonpayable",
      "type": "function"
    },
    {
      "inputs": [
        {
          "internalType": "bytes32",
          "name": "_certHash",
          "type": "bytes32"
        },
        {
          "internalType": "string",
          "name": "_reason",
          "type": "string"
        }
      ],
      "name": "revokeCertificate",
      "outputs": [],
      "stateMutability": "nonpayable",
      "type": "function"
    },
    {
      "inputs": [
        {
          "internalType": "bytes32",
          "name": "role",
          "type": "bytes32"
        },
        {
          "internalType": "address",
          "name": "account",
          "type": "address"
        }
      ],
      "name": "revokeRole",
      "outputs": [],
      "stateMutability": "nonpayable",
      "type": "function"
    },
    {
      "inputs": [],
      "name": "revokedCertificates",
      "outputs": [
        {
          "internalType": "uint256",
          "name": "",
          "type": "uint256"
        }
      ],
      "stateMutability": "view",
      "type": "function"
    },
    {
      "inputs": [
        {
          "internalType": "string",
          "name": "source",
          "type": "string"
        }
      ],
      "name": "stringToBytes32",
      "outputs": [
        {
          "internalType": "bytes32",
          "name": "result",
          "type": "bytes32"
        }
      ],
      "stateMutability": "pure",
      "type": "function"
    },
    {
      "inputs": [
        {
          "internalType": "bytes32",
          "name": "_certHash",
          "type": "bytes32"
        },
        {
          "internalType": "bytes32",
          "name": "_studentId",
          "type": "bytes32"
        },
        {
          "internalType": "bytes32",
          "name": "_universityId",
          "type": "bytes32"
        },
        {
          "internalType": "bytes32",
          "name": "_companyId",
          "type": "bytes32"
        },
        {
          "internalType": "uint256",
          "name": "_startDate",
          "type": "uint256"
        },
        {
          "internalType": "uint256",
          "name": "_endDate",
          "type": "uint256"
        },
        {
          "internalType": "string",
          "name": "_contentHash",
          "type": "string"
        }
      ],
      "name": "submitCertificateRequest",
      "outputs": [],
      "stateMutability": "nonpayable",
      "type": "function"
    },
    {
      "inputs": [
        {
          "internalType": "bytes4",
          "name": "interfaceId",
          "type": "bytes4"
        }
      ],
      "name": "supportsInterface",
      "outputs": [
        {
          "internalType": "bool",
          "name": "",
          "type": "bool"
        }
      ],
      "stateMutability": "view",
      "type": "function"
    },
    {
      "inputs": [],
      "name": "totalCertificates",
      "outputs": [
        {
          "internalType": "uint256",
          "name": "",
          "type": "uint256"
        }
      ],
      "stateMutability": "view",
      "type": "function"
    },
    {
      "inputs": [],
      "name": "unpause",
      "outputs": [],
      "stateMutability": "nonpayable",
      "type": "function"
    },
    {
      "inputs": [
        {
          "internalType": "bytes32",
          "name": "_certHash",
          "type": "bytes32"
        }
      ],
      "name": "verifyCertificate",
      "outputs": [
        {
          "internalType": "bool",
          "name": "isValid",
          "type": "bool"
        },
        {
          "components": [
            {
              "internalType": "bytes32",
              "name": "certHash",
              "type": "bytes32"
            },
            {
              "internalType": "address",
              "name": "issuer",
              "type": "address"
            },
            {
              "internalType": "enum InternshipCertificationV2.CertificateStatus",
              "name": "status",
              "type": "uint8"
            },
            {
              "internalType": "uint64",
              "name": "issueDate",
              "type": "uint64"
            },
            {
              "internalType": "address",
              "name": "student",
              "type": "address"
            },
            {
              "internalType": "uint64",
              "name": "startDate",
              "type": "uint64"
            },
            {
              "internalType": "uint64",
              "name": "endDate",
              "type": "uint64"
            },
            {
              "internalType": "uint64",
              "name": "createdAt",
              "type": "uint64"
            },
            {
              "internalType": "uint64",
              "name": "updatedAt",
              "type": "uint64"
            },
            {
              "internalType": "bytes32",
              "name": "studentId",
              "type": "bytes32"
            },
            {
              "internalType": "bytes32",
              "name": "universityId",
              "type": "bytes32"
            },
            {
              "internalType": "bytes32",
              "name": "companyId",
              "type": "bytes32"
            },
            {
              "internalType": "string",
              "name": "contentHash",
              "type": "string"
            }
          ],
          "internalType": "struct InternshipCertificationV2.Certificate",
          "name": "cert",
          "type": "tuple"
        },
        {
          "internalType": "bool",
          "name": "isExpired",
          "type": "bool"
        }
      ],
      "stateMutability": "view",
      "type": "function"
    },
    {
      "inputs": [
        {
          "internalType": "bytes32",
          "name": "_certHash",
          "type": "bytes32"
        },
        {
          "internalType": "string",
          "name": "_contentHash",
          "type": "string"
        }
      ],
      "name": "verifyContentIntegrity",
      "outputs": [
        {
          "internalType": "bool",
          "name": "",
          "type": "bool"
        }
      ],
      "stateMutability": "view",
      "type": "function"
    }
  ],
  "bytecode": "0x60806040523480156200001157600080fd5b5060016002556200002460003362000058565b50620000517fa49807205ce4d355092ef5a8a18f56e8913cf4a201fbe287825b095693c217753362000058565b5062000107565b6000828152602081815260408083206001600160a01b038516845290915281205460ff16620000fd576000838152602081815260408083206001600160a01b03861684529091529020805460ff19166001179055620000b43390565b6001600160a01b0316826001600160a01b0316847f2f8788117e7eff1d82e926ec794901d17c78024a50270940304540a733656f0d60405160405180910390a450600162000101565b5060005b92915050565b61247a80620001176000396000f3fe608060405234801561001057600080fd5b50600436106101cf5760003560e01c80635bf4adfb11610104578063850c1768116100a2578063a217fddf11610071578063a217fddf14610400578063cfb5192814610408578063d547741f1461041b578063f561a8d91461042e57600080fd5b8063850c1768146103a557806391d14854146103c75780639bb2e872146103da5780639dcfc7ce146103ed57600080fd5b80636b758cdc116100de5780636b758cdc14610349578063742f06881461035c57806375b238fc146103885780638456cb591461039d57600080fd5b80635bf4adfb146103225780635c975abb146103355780636af78abe1461034057600080fd5b8063372d6b27116101715780633f4ba83a1161014b5780633f4ba83a146102eb57806355d3aed1146102f357806357f7c13d14610306578063596b772f1461031957600080fd5b8063372d6b271461029f5780633d178414146102c35780633e220e4e146102d857600080fd5b80632795ad20116101ad5780632795ad20146102425780632f2ff15d1461026e57806334c89a831461028357806336568abe1461028c57600080fd5b806301ffc9a7146101d45780631c9ee11a146101fc578063248a9ca31461021f575b600080fd5b6101e76101e2366004611acb565b610439565b60405190151581526020015b60405180910390f35b61021160008051602061240583398151915281565b6040519081526020016101f3565b61021161022d366004611afc565b60009081526020819052604090206001015490565b610255610250366004611afc565b610470565b6040516101f39d9c9b9a99989796959493929190611b65565b61028161027c366004611c29565b61058e565b005b61021160065481565b61028161029a366004611c29565b6105b9565b600554600654600754604080519384526020840192909252908201526060016101f3565b6102116000805160206123e583398151915281565b6102816102e6366004611c55565b6105f1565b610281610679565b6101e7610301366004611d21565b61069c565b610281610314366004611afc565b610779565b61021160055481565b610281610330366004611d21565b610962565b60015460ff166101e7565b61021160075481565b610281610357366004611c55565b610b7c565b61036f61036a366004611afc565b610bf7565b6040516101f39d9c9b9a99989796959493929190611d9f565b61021160008051602061242583398151915281565b610281610d12565b6103b86103b3366004611afc565b610d32565b6040516101f393929190611e47565b6101e76103d5366004611c29565b610f8f565b6102816103e8366004611f85565b610fb8565b6102116103fb366004611ffb565b61121d565b610211600081565b610211610416366004612082565b6115ed565b610281610429366004611c29565b61160c565b610211630966018081565b60006001600160e01b03198216637965db0b60e01b148061046a57506301ffc9a760e01b6001600160e01b03198316145b92915050565b60046020819052600091825260409091208054600182015460028301546003840154948401546005850180549496939592946001600160401b0380841694600160401b909404169291906104c3906120b6565b80601f01602080910402602001604051908101604052809291908181526020018280546104ef906120b6565b801561053c5780601f106105115761010080835404028352916020019161053c565b820191906000526020600020905b81548152906001019060200180831161051f57829003601f168201915b505050506006830154600790930154919260ff808216936101008304821693506001600160a01b0362010000909304831692811691600160a01b820416906001600160401b03600160a81b909104168d565b6000828152602081905260409020600101546105a981611631565b6105b3838361163b565b50505050565b6001600160a01b03811633146105e25760405163334bd91960e11b815260040160405180910390fd5b6105ec82826116cd565b505050565b60008051602061242583398151915261060981611631565b6106216000805160206123e58339815191528461163b565b50826001600160a01b03166000805160206123e58339815191527fb58e363911f7cf90b95dd7636d86f6cccde66aca70543b3b7fc18b898a0dfc5e8460405161066c91815260200190565b60405180910390a3505050565b60008051602061242583398151915261069181611631565b610699611738565b50565b6000828152600360208190526040822001548390600160401b90046001600160401b031682036107135760405162461bcd60e51b815260206004820152601a60248201527f436572746966696361746520646f6573206e6f7420657869737400000000000060448201526064015b60405180910390fd5b8260405160200161072491906120f0565b60408051601f19818403018152828252805160209182012060008881526003835292909220919261075992600701910161210c565b604051602081830303815290604052805190602001201491505092915050565b61078161178a565b6107896117b0565b6107a160008051602061240583398151915233610f8f565b6107ed5760405162461bcd60e51b815260206004820152601c60248201527f4e6f7420617574686f72697a65643a20434f4d50414e59206f6e6c7900000000604482015260640161070a565b600081815260046020526040812060078101549091600160a81b9091046001600160401b031690036108555760405162461bcd60e51b815260206004820152601160248201527014995c5d595cdd081b9bdd08199bdd5b99607a1b604482015260640161070a565b6007810154600160a01b900460ff16156108a55760405162461bcd60e51b8152602060048201526011602482015270105b1c9958591e48199a5b985b1a5e9959607a1b604482015260640161070a565b60068101805461ff0019166101001790556007810180546001600160a01b0319163390811790915560405183907fbaf6cb8bb5b4864473028e02d71ffba757df6ca32d81e04c33662e807ca5256790610923904290604080825260079082015266434f4d50414e5960c81b6060820152602081019190915260800190565b60405180910390a3600681015460ff16801561094857506006810154610100900460ff165b156109575761095782826117d8565b506106996001600255565b6000828152600360208190526040822001548391600160401b9091046001600160401b031690036109d55760405162461bcd60e51b815260206004820152601a60248201527f436572746966696361746520646f6573206e6f74206578697374000000000000604482015260640161070a565b60008381526003602052604090206001015483906001600160a01b0316331480610a125750610a1260008051602061242583398151915233610f8f565b610a4f5760405162461bcd60e51b815260206004820152600e60248201526d139bdd08185d5d1a1bdc9a5e995960921b604482015260640161070a565b6000848152600360205260409020600180820154600160a01b900460ff166003811115610a7e57610a7e611d67565b14610acb5760405162461bcd60e51b815260206004820152601960248201527f4365727469666963617465206973206e6f742061637469766500000000000000604482015260640161070a565b60018101805460ff60a01b1916600160a11b17905560038101805467ffffffffffffffff60801b1916600160801b426001600160401b03160217905560068054906000610b1783612198565b909155505060078054906000610b2c836121af565b9190505550336001600160a01b0316857fba6b1f45b9140a00c5c5541e536fa1e9aff39c507267e24a5dfba0074f15aaca8642604051610b6d9291906121c8565b60405180910390a35050505050565b600080516020612425833981519152610b9481611631565b610bac6000805160206124058339815191528461163b565b50826001600160a01b03166000805160206124058339815191527fb58e363911f7cf90b95dd7636d86f6cccde66aca70543b3b7fc18b898a0dfc5e8460405161066c91815260200190565b60036020819052600091825260409091208054600182015460028301549383015460048401546005850154600686015460078701805496986001600160a01b0380881699600160a01b808a0460ff169a600160a81b909a046001600160401b039081169a938516999190940484169784821697600160401b8304861697600160801b90930490951695909493919291610c8f906120b6565b80601f0160208091040260200160405190810160405280929190818152602001828054610cbb906120b6565b8015610d085780601f10610cdd57610100808354040283529160200191610d08565b820191906000526020600020905b815481529060010190602001808311610ceb57829003601f168201915b505050505090508d565b600080516020612425833981519152610d2a81611631565b610699611a30565b604080516101a08101825260008082526020820181905291810182905260608082018390526080820183905260a0820183905260c0820183905260e082018390526101008201839052610120820183905261014082018390526101608201839052610180820152600083815260036020818152604080842081516101a0810183528154815260018201546001600160a01b0381169482019490945293909291840191600160a01b900460ff1690811115610dee57610dee611d67565b6003811115610dff57610dff611d67565b815260018201546001600160401b03600160a81b9091048116602083015260028301546001600160a01b0381166040840152600160a01b90048116606083015260038301548082166080840152600160401b8104821660a0840152600160801b90041660c0820152600482015460e08201526005820154610100820152600682015461012082015260078201805461014090920191610e9d906120b6565b80601f0160208091040260200160405190810160405280929190818152602001828054610ec9906120b6565b8015610f165780601f10610eeb57610100808354040283529160200191610f16565b820191906000526020600020905b815481529060010190602001808311610ef957829003601f168201915b50505050508152505091508160e001516001600160401b0316600003610f4157506000915081610f88565b63096601808260c001516001600160401b0316610f5e91906121ea565b42119050600182604001516003811115610f7a57610f7a611d67565b148015610f85575080155b92505b9193909250565b6000918252602082815260408084206001600160a01b0393909316845291905290205460ff1690565b610fc061178a565b610fc86117b0565b610fe060008051602061242583398151915233610f8f565b80610ffe5750610ffe6000805160206123e583398151915233610f8f565b61103b5760405162461bcd60e51b815260206004820152600e60248201526d139bdd08185d5d1a1bdc9a5e995960921b604482015260640161070a565b600087815260046020526040902060070154600160a81b90046001600160401b0316156110a35760405162461bcd60e51b81526020600482015260166024820152755265717565737420616c72656164792065786973747360501b604482015260640161070a565b600087815260046020819052604090912088815560018101889055600281018790556003810186905590810180546001600160401b03858116600160401b026fffffffffffffffffffffffffffffffff19909216908716171790556005810161110c838261224b565b5060078101805467ffffffffffffffff60a81b1916600160a81b426001600160401b03160217905561114c6000805160206123e583398151915233610f8f565b156111cf57600681018054620100003390810261ff01600160b01b03199092169190911760011790915560408051818152600a9181019190915269554e495645525349545960b01b606082015242602082015289907fbaf6cb8bb5b4864473028e02d71ffba757df6ca32d81e04c33662e807ca525679060800160405180910390a35b6040805188815242602082015289917fd4a48b6aecf0bc84943055841e95a2ec1d908506dad69f38a18ee56b380efa7e910160405180910390a2506112146001600255565b50505050505050565b600061122761178a565b61122f6117b0565b61124760008051602061242583398151915233610f8f565b8061126557506112656000805160206123e583398151915233610f8f565b80611283575061128360008051602061240583398151915233610f8f565b6112dd5760405162461bcd60e51b815260206004820152602560248201527f4e6f7420617574686f72697a656420746f206372656174652063657274696669604482015264636174657360d81b606482015260840161070a565b60008981526003602081905260409091200154600160401b90046001600160401b03161561134d5760405162461bcd60e51b815260206004820152601a60248201527f436572746966696361746520616c726561647920657869737473000000000000604482015260640161070a565b866113905760405162461bcd60e51b815260206004820152601360248201527214dd1d59195b9d081251081c995c5d5a5c9959606a1b604482015260640161070a565b8284106113d45760405162461bcd60e51b8152602060048201526012602482015271496e76616c696420646174652072616e676560701b604482015260640161070a565b6000600360008b81526020019081526020016000209050898160000181905550338160010160006101000a8154816001600160a01b0302191690836001600160a01b03160217905550888160020160006101000a8154816001600160a01b0302191690836001600160a01b03160217905550878160040181905550868160050181905550858160060181905550428160010160156101000a8154816001600160401b0302191690836001600160401b03160217905550848160020160146101000a8154816001600160401b0302191690836001600160401b03160217905550838160030160006101000a8154816001600160401b0302191690836001600160401b0316021790555060018160010160146101000a81548160ff0219169083600381111561150357611503611d67565b021790555060078101611516848261224b565b50600381018054600160401b600160c01b031916600160401b426001600160401b031690810267ffffffffffffffff60801b191691909117600160801b919091021790556005805490600061156a836121af565b90915550506006805490600061157f836121af565b909155505060408051898152602081018990529081018790524260608201526001600160a01b038a169033908c907f742e7be8acbcc6a9cb13b2af9b8bc676775f4b8cb71aaccb76dc5fa597a82cca9060800160405180910390a45050600160025550959695505050505050565b8051600090829082036116035750600092915050565b50506020015190565b60008281526020819052604090206001015461162781611631565b6105b383836116cd565b6106998133611a6b565b60006116478383610f8f565b6116c5576000838152602081815260408083206001600160a01b03861684529091529020805460ff1916600117905561167d3390565b6001600160a01b0316826001600160a01b0316847f2f8788117e7eff1d82e926ec794901d17c78024a50270940304540a733656f0d60405160405180910390a450600161046a565b50600061046a565b60006116d98383610f8f565b156116c5576000838152602081815260408083206001600160a01b0386168085529252808320805460ff1916905551339286917ff6391f5c32d9c69d2a47ea670b442974b53935d1edc7fd64eb21e047a839171b9190a450600161046a565b611740611aa8565b6001805460ff191690557f5db9ee0a495bf2e6ff9c91a7834c1ba4fdd244a5e8aa4e537bd38aeae4b073aa335b6040516001600160a01b03909116815260200160405180910390a1565b60015460ff16156117ae5760405163d93c066560e01b815260040160405180910390fd5b565b60028054036117d257604051633ee5aeb560e01b815260040160405180910390fd5b60028055565b60078101805460ff60a01b19908116600160a01b9081179092556000848152600360208190526040909120858155600680860154600183810180546001600160a01b03198082166001600160a01b03620100009096049590951694851783556002808801805492831681558c8601546004808b0191909155918d015460058a0155898d0154978901979097556001600160401b03428116600160a81b02600168ffffffffffffffff0160a01b031990941690961792909217808455918b01805486168b026001600160e01b0319909216919091179095559354958501805467ffffffffffffffff1916600160401b90970490931695909517909155919491931690830217905550600781016118f0600584018261230a565b50600381018054600160401b600160c01b031916600160401b426001600160401b031690810267ffffffffffffffff60801b191691909117600160801b9190910217905560058054906000611944836121af565b909155505060068054906000611959836121af565b90915550506006820154600183015460028401546003850154604080519384526020840192909252908201524260608201526000916201000090046001600160a01b03169085907f742e7be8acbcc6a9cb13b2af9b8bc676775f4b8cb71aaccb76dc5fa597a82cca9060800160405180910390a46006820154600783015460408051620100009093046001600160a01b0390811684529091166020830152429082015283907ff0525457752a02801a4289371708b8d5b19c012e81523f063ba23cd2920b1f089060600160405180910390a2505050565b611a3861178a565b6001805460ff1916811790557f62e78cea01bee320cd4e420270b5ea74000d11b0c9f74754ebdbfc544b05a2583361176d565b611a758282610f8f565b611aa45760405163e2517d3f60e01b81526001600160a01b03821660048201526024810183905260440161070a565b5050565b60015460ff166117ae57604051638dfc202b60e01b815260040160405180910390fd5b600060208284031215611add57600080fd5b81356001600160e01b031981168114611af557600080fd5b9392505050565b600060208284031215611b0e57600080fd5b5035919050565b60005b83811015611b30578181015183820152602001611b18565b50506000910152565b60008151808452611b51816020860160208601611b15565b601f01601f19169290920160200192915050565b60006101a08f83528e60208401528d60408401528c60608401526001600160401b03808d166080850152808c1660a0850152508060c0840152611baa8184018b611b39565b91505087151560e0830152861515610100830152611bd46101208301876001600160a01b03169052565b6001600160a01b03949094166101408201529115156101608301526001600160401b0316610180909101529a9950505050505050505050565b80356001600160a01b0381168114611c2457600080fd5b919050565b60008060408385031215611c3c57600080fd5b82359150611c4c60208401611c0d565b90509250929050565b60008060408385031215611c6857600080fd5b611c7183611c0d565b946020939093013593505050565b634e487b7160e01b600052604160045260246000fd5b600082601f830112611ca657600080fd5b81356001600160401b0380821115611cc057611cc0611c7f565b604051601f8301601f19908116603f01168101908282118183101715611ce857611ce8611c7f565b81604052838152866020858801011115611d0157600080fd5b836020870160208301376000602085830101528094505050505092915050565b60008060408385031215611d3457600080fd5b8235915060208301356001600160401b03811115611d5157600080fd5b611d5d85828601611c95565b9150509250929050565b634e487b7160e01b600052602160045260246000fd5b60048110611d9b57634e487b7160e01b600052602160045260246000fd5b9052565b8d81526001600160a01b038d81166020830152600090611dc2604084018f611d7d565b6001600160401b038d81166060850152908c1660808401528a811660a0840152891660c08301526001600160401b03881660e08301526001600160401b0387166101008301528561012083015284610140830152836101608301526101a0610180830152611e346101a0830184611b39565b9f9e505050505050505050505050505050565b8315158152606060208201528251606082015260006020840151611e7660808401826001600160a01b03169052565b506040840151611e8960a0840182611d7d565b5060608401516001600160401b03811660c08401525060808401516001600160a01b03811660e08401525060a0840151610100611ed0818501836001600160401b03169052565b60c08601519150610120611eee818601846001600160401b03169052565b60e08701519250610140611f0c818701856001600160401b03169052565b91870151925061016091611f2a868401856001600160401b03169052565b9087015161018086810191909152908701516101a080870191909152918701516101c08601528601516101e08501919091529050611f6c610200840182611b39565b915050611f7d604083018415159052565b949350505050565b600080600080600080600060e0888a031215611fa057600080fd5b873596506020880135955060408801359450606088013593506080880135925060a0880135915060c08801356001600160401b03811115611fe057600080fd5b611fec8a828b01611c95565b91505092959891949750929550565b600080600080600080600080610100898b03121561201857600080fd5b8835975061202860208a01611c0d565b965060408901359550606089013594506080890135935060a0890135925060c0890135915060e08901356001600160401b0381111561206657600080fd5b6120728b828c01611c95565b9150509295985092959890939650565b60006020828403121561209457600080fd5b81356001600160401b038111156120aa57600080fd5b611f7d84828501611c95565b600181811c908216806120ca57607f821691505b6020821081036120ea57634e487b7160e01b600052602260045260246000fd5b50919050565b60008251612102818460208701611b15565b9190910192915050565b600080835461211a816120b6565b60018281168015612132576001811461214757612176565b60ff1984168752821515830287019450612176565b8760005260208060002060005b8581101561216d5781548a820152908401908201612154565b50505082870194505b50929695505050505050565b634e487b7160e01b600052601160045260246000fd5b6000816121a7576121a7612182565b506000190190565b6000600182016121c1576121c1612182565b5060010190565b6040815260006121db6040830185611b39565b90508260208301529392505050565b8082018082111561046a5761046a612182565b601f8211156105ec57600081815260208120601f850160051c810160208610156122245750805b601f850160051c820191505b8181101561224357828155600101612230565b505050505050565b81516001600160401b0381111561226457612264611c7f565b6122788161227284546120b6565b846121fd565b602080601f8311600181146122ad57600084156122955750858301515b600019600386901b1c1916600185901b178555612243565b600085815260208120601f198616915b828110156122dc578886015182559484019460019091019084016122bd565b50858210156122fa5787850151600019600388901b60f8161c191681555b5050505050600190811b01905550565b818103612315575050565b61231f82546120b6565b6001600160401b0381111561233657612336611c7f565b6123448161227284546120b6565b6000601f82116001811461237857600083156123605750848201545b600019600385901b1c1916600184901b1784556123dd565b600085815260209020601f19841690600086815260209020845b838110156123b25782860154825560019586019590910190602001612392565b50858310156123d05781850154600019600388901b60f8161c191681555b50505060018360011b0184555b505050505056fe5bb0bf1fabd5e975fc7a4520766d9e86e0eb281f8c7c44fcd3dfe60a11e786ca9e1688b53537f356172ce07f39e129155063957163c5f9462d4d9e55b228b06ca49807205ce4d355092ef5a8a18f56e8913cf4a201fbe287825b095693c21775a264697066735822122052ae41842f8b4d5fab5d2f91a7bce74f36372e8b3c4008c2f616456e3365ffce64736f6c63430008140033",
  "linkReferences": {},
  "deployedLinkReferences": {}
}