{
  "_format": "hh-sol-artifact-1",
  "contractName": "InternshipCertification",
  "sourceName": "contracts/InternshipCertification.sol",
  "abi": [
    {
      "inputs": [],
      "stateMutability": "nonpayable",
      "type": "constructor"
    },
    {
      "inputs": [],
      "name": "AccessControlBadConfirmation",
      "type": "error"
    },
    {
      "inputs": [
        {
          "internalType": "address",
          "name": "account",
          "type": "address"
        },
        {
          "internalType": "bytes32",
          "name": "neededRole",
          "type": "bytes32"
        }
      ],
      "name": "AccessControlUnauthorizedAccount",
      "type": "error"
    },
    {
      "inputs": [],
      "name": "EnforcedPause",
      "type": "error"
    },
    {
      "inputs": [],
      "name": "ExpectedPause",
      "type": "error"
    },
    {
      "inputs": [],
      "name": "ReentrancyGuardReentrantCall",
      "type": "error"
    },
    {
      "anonymous": false,
      "inputs": [
        {
          "indexed": true,
          "internalType": "bytes32",
          "name": "certHash",
          "type": "bytes32"
        },
        {
          "indexed": true,
          "internalType": "address",
          "name": "issuer",
          "type": "address"
        },
        {
          "indexed": true,
          "internalType": "address",
          "name": "student",
          "type": "address"
        },
        {
          "indexed": false,
          "internalType": "string",
          "name": "studentId",
          "type": "string"
        },
        {
          "indexed": false,
          "internalType": "uint256",
          "name": "timestamp",
          "type": "uint256"
        }
      ],
      "name": "CertificateCreated",
      "type": "event"
    },
    {
      "anonymous": false,
      "inputs": [
        {
          "indexed": true,
          "internalType": "bytes32",
          "name": "certHash",
          "type": "bytes32"
        },
        {
          "indexed": false,
          "internalType": "address",
          "name": "universityAddr",
          "type": "address"
        },
        {
          "indexed": false,
          "internalType": "address",
          "name": "companyAddr",
          "type": "address"
        },
        {
          "indexed": false,
          "internalType": "uint256",
          "name": "timestamp",
          "type": "uint256"
        }
      ],
      "name": "CertificateFinalized",
      "type": "event"
    },
    {
      "anonymous": false,
      "inputs": [
        {
          "indexed": true,
          "internalType": "bytes32",
          "name": "certHash",
          "type": "bytes32"
        },
        {
          "indexed": false,
          "internalType": "string",
          "name": "studentId",
          "type": "string"
        },
        {
          "indexed": false,
          "internalType": "uint256",
          "name": "timestamp",
          "type": "uint256"
        }
      ],
      "name": "CertificateRequestSubmitted",
      "type": "event"
    },
    {
      "anonymous": false,
      "inputs": [
        {
          "indexed": true,
          "internalType": "bytes32",
          "name": "certHash",
          "type": "bytes32"
        },
        {
          "indexed": true,
          "internalType": "address",
          "name": "revoker",
          "type": "address"
        },
        {
          "indexed": false,
          "internalType": "string",
          "name": "reason",
          "type": "string"
        },
        {
          "indexed": false,
          "internalType": "uint256",
          "name": "timestamp",
          "type": "uint256"
        }
      ],
      "name": "CertificateRevoked",
      "type": "event"
    },
    {
      "anonymous": false,
      "inputs": [
        {
          "indexed": true,
          "internalType": "bytes32",
          "name": "certHash",
          "type": "bytes32"
        },
        {
          "indexed": true,
          "internalType": "address",
          "name": "updater",
          "type": "address"
        },
        {
          "indexed": false,
          "internalType": "uint256",
          "name": "timestamp",
          "type": "uint256"
        }
      ],
      "name": "CertificateUpdated",
      "type": "event"
    },
    {
      "anonymous": false,
      "inputs": [
        {
          "indexed": true,
          "internalType": "bytes32",
          "name": "certHash",
          "type": "bytes32"
        },
        {
          "indexed": true,
          "internalType": "address",
          "name": "verifier",
          "type": "address"
        },
        {
          "indexed": false,
          "internalType": "bool",
          "name": "isValid",
          "type": "bool"
        },
        {
          "indexed": false,
          "internalType": "uint256",
          "name": "timestamp",
          "type": "uint256"
        }
      ],
      "name": "CertificateVerified",
      "type": "event"
    },
    {
      "anonymous": false,
      "inputs": [
        {
          "indexed": true,
          "internalType": "bytes32",
          "name": "certHash",
          "type": "bytes32"
        },
        {
          "indexed": true,
          "internalType": "address",
          "name": "confirmer",
          "type": "address"
        },
        {
          "indexed": false,
          "internalType": "string",
          "name": "role",
          "type": "string"
        },
        {
          "indexed": false,
          "internalType": "uint256",
          "name": "timestamp",
          "type": "uint256"
        }
      ],
      "name": "ConfirmationReceived",
      "type": "event"
    },
    {
      "anonymous": false,
      "inputs": [
        {
          "indexed": false,
          "internalType": "address",
          "name": "account",
          "type": "address"
        }
      ],
      "name": "Paused",
      "type": "event"
    },
    {
      "anonymous": false,
      "inputs": [
        {
          "indexed": true,
          "internalType": "bytes32",
          "name": "role",
          "type": "bytes32"
        },
        {
          "indexed": true,
          "internalType": "bytes32",
          "name": "previousAdminRole",
          "type": "bytes32"
        },
        {
          "indexed": true,
          "internalType": "bytes32",
          "name": "newAdminRole",
          "type": "bytes32"
        }
      ],
      "name": "RoleAdminChanged",
      "type": "event"
    },
    {
      "anonymous": false,
      "inputs": [
        {
          "indexed": true,
          "internalType": "bytes32",
          "name": "role",
          "type": "bytes32"
        },
        {
          "indexed": true,
          "internalType": "address",
          "name": "account",
          "type": "address"
        },
        {
          "indexed": true,
          "internalType": "address",
          "name": "sender",
          "type": "address"
        }
      ],
      "name": "RoleGranted",
      "type": "event"
    },
    {
      "anonymous": false,
      "inputs": [
        {
          "indexed": true,
          "internalType": "bytes32",
          "name": "role",
          "type": "bytes32"
        },
        {
          "indexed": true,
          "internalType": "address",
          "name": "account",
          "type": "address"
        },
        {
          "indexed": false,
          "internalType": "string",
          "name": "entityId",
          "type": "string"
        }
      ],
      "name": "RoleGrantedToEntity",
      "type": "event"
    },
    {
      "anonymous": false,
      "inputs": [
        {
          "indexed": true,
          "internalType": "bytes32",
          "name": "role",
          "type": "bytes32"
        },
        {
          "indexed": true,
          "internalType": "address",
          "name": "account",
          "type": "address"
        },
        {
          "indexed": true,
          "internalType": "address",
          "name": "sender",
          "type": "address"
        }
      ],
      "name": "RoleRevoked",
      "type": "event"
    },
    {
      "anonymous": false,
      "inputs": [
        {
          "indexed": false,
          "internalType": "address",
          "name": "account",
          "type": "address"
        }
      ],
      "name": "Unpaused",
      "type": "event"
    },
    {
      "inputs": [],
      "name": "ADMIN_ROLE",
      "outputs": [
        {
          "internalType": "bytes32",
          "name": "",
          "type": "bytes32"
        }
      ],
      "stateMutability": "view",
      "type": "function"
    },
    {
      "inputs": [],
      "name": "CERTIFICATE_VALIDITY_PERIOD",
      "outputs": [
        {
          "internalType": "uint256",
          "name": "",
          "type": "uint256"
        }
      ],
      "stateMutability": "view",
      "type": "function"
    },
    {
      "inputs": [],
      "name": "COMPANY_ROLE",
      "outputs": [
        {
          "internalType": "bytes32",
          "name": "",
          "type": "bytes32"
        }
      ],
      "stateMutability": "view",
      "type": "function"
    },
    {
      "inputs": [],
      "name": "DEFAULT_ADMIN_ROLE",
      "outputs": [
        {
          "internalType": "bytes32",
          "name": "",
          "type": "bytes32"
        }
      ],
      "stateMutability": "view",
      "type": "function"
    },
    {
      "inputs": [],
      "name": "UNIVERSITY_ROLE",
      "outputs": [
        {
          "internalType": "bytes32",
          "name": "",
          "type": "bytes32"
        }
      ],
      "stateMutability": "view",
      "type": "function"
    },
    {
      "inputs": [],
      "name": "activeCertificates",
      "outputs": [
        {
          "internalType": "uint256",
          "name": "",
          "type": "uint256"
        }
      ],
      "stateMutability": "view",
      "type": "function"
    },
    {
      "inputs": [
        {
          "internalType": "uint256",
          "name": "",
          "type": "uint256"
        }
      ],
      "name": "allCertificateIds",
      "outputs": [
        {
          "internalType": "bytes32",
          "name": "",
          "type": "bytes32"
        }
      ],
      "stateMutability": "view",
      "type": "function"
    },
    {
      "inputs": [
        {
          "internalType": "bytes32[]",
          "name": "_certHashes",
          "type": "bytes32[]"
        },
        {
          "internalType": "address[]",
          "name": "_students",
          "type": "address[]"
        },
        {
          "internalType": "string[]",
          "name": "_studentIds",
          "type": "string[]"
        },
        {
          "internalType": "string",
          "name": "_universityId",
          "type": "string"
        },
        {
          "internalType": "string",
          "name": "_companyId",
          "type": "string"
        },
        {
          "internalType": "uint256[]",
          "name": "_startDates",
          "type": "uint256[]"
        },
        {
          "internalType": "uint256[]",
          "name": "_endDates",
          "type": "uint256[]"
        }
      ],
      "name": "batchCreateCertificates",
      "outputs": [],
      "stateMutability": "nonpayable",
      "type": "function"
    },
    {
      "inputs": [
        {
          "internalType": "bytes32",
          "name": "",
          "type": "bytes32"
        }
      ],
      "name": "certificates",
      "outputs": [
        {
          "internalType": "bytes32",
          "name": "certHash",
          "type": "bytes32"
        },
        {
          "internalType": "address",
          "name": "issuer",
          "type": "address"
        },
        {
          "internalType": "address",
          "name": "student",
          "type": "address"
        },
        {
          "internalType": "string",
          "name": "studentId",
          "type": "string"
        },
        {
          "internalType": "string",
          "name": "universityId",
          "type": "string"
        },
        {
          "internalType": "string",
          "name": "companyId",
          "type": "string"
        },
        {
          "internalType": "uint256",
          "name": "issueDate",
          "type": "uint256"
        },
        {
          "internalType": "uint256",
          "name": "startDate",
          "type": "uint256"
        },
        {
          "internalType": "uint256",
          "name": "endDate",
          "type": "uint256"
        },
        {
          "internalType": "enum InternshipCertification.CertificateStatus",
          "name": "status",
          "type": "uint8"
        },
        {
          "internalType": "string",
          "name": "contentHash",
          "type": "string"
        },
        {
          "internalType": "uint256",
          "name": "createdAt",
          "type": "uint256"
        },
        {
          "internalType": "uint256",
          "name": "updatedAt",
          "type": "uint256"
        }
      ],
      "stateMutability": "view",
      "type": "function"
    },
    {
      "inputs": [
        {
          "internalType": "string",
          "name": "",
          "type": "string"
        },
        {
          "internalType": "uint256",
          "name": "",
          "type": "uint256"
        }
      ],
      "name": "companyCertificates",
      "outputs": [
        {
          "internalType": "bytes32",
          "name": "",
          "type": "bytes32"
        }
      ],
      "stateMutability": "view",
      "type": "function"
    },
    {
      "inputs": [
        {
          "internalType": "bytes32",
          "name": "_certHash",
          "type": "bytes32"
        }
      ],
      "name": "companyConfirm",
      "outputs": [],
      "stateMutability": "nonpayable",
      "type": "function"
    },
    {
      "inputs": [
        {
          "internalType": "bytes32",
          "name": "_certHash",
          "type": "bytes32"
        },
        {
          "internalType": "address",
          "name": "_student",
          "type": "address"
        },
        {
          "internalType": "string",
          "name": "_studentId",
          "type": "string"
        },
        {
          "internalType": "string",
          "name": "_universityId",
          "type": "string"
        },
        {
          "internalType": "string",
          "name": "_companyId",
          "type": "string"
        },
        {
          "internalType": "uint256",
          "name": "_startDate",
          "type": "uint256"
        },
        {
          "internalType": "uint256",
          "name": "_endDate",
          "type": "uint256"
        },
        {
          "internalType": "string",
          "name": "_contentHash",
          "type": "string"
        }
      ],
      "name": "createCertificate",
      "outputs": [
        {
          "internalType": "bytes32",
          "name": "",
          "type": "bytes32"
        }
      ],
      "stateMutability": "nonpayable",
      "type": "function"
    },
    {
      "inputs": [
        {
          "internalType": "uint256",
          "name": "_offset",
          "type": "uint256"
        },
        {
          "internalType": "uint256",
          "name": "_limit",
          "type": "uint256"
        }
      ],
      "name": "getAllCertificateIds",
      "outputs": [
        {
          "internalType": "bytes32[]",
          "name": "",
          "type": "bytes32[]"
        }
      ],
      "stateMutability": "view",
      "type": "function"
    },
    {
      "inputs": [
        {
          "internalType": "bytes32",
          "name": "_certHash",
          "type": "bytes32"
        }
      ],
      "name": "getCertificate",
      "outputs": [
        {
          "components": [
            {
              "internalType": "bytes32",
              "name": "certHash",
              "type": "bytes32"
            },
            {
              "internalType": "address",
              "name": "issuer",
              "type": "address"
            },
            {
              "internalType": "address",
              "name": "student",
              "type": "address"
            },
            {
              "internalType": "string",
              "name": "studentId",
              "type": "string"
            },
            {
              "internalType": "string",
              "name": "universityId",
              "type": "string"
            },
            {
              "internalType": "string",
              "name": "companyId",
              "type": "string"
            },
            {
              "internalType": "uint256",
              "name": "issueDate",
              "type": "uint256"
            },
            {
              "internalType": "uint256",
              "name": "startDate",
              "type": "uint256"
            },
            {
              "internalType": "uint256",
              "name": "endDate",
              "type": "uint256"
            },
            {
              "internalType": "enum InternshipCertification.CertificateStatus",
              "name": "status",
              "type": "uint8"
            },
            {
              "internalType": "string",
              "name": "contentHash",
              "type": "string"
            },
            {
              "internalType": "uint256",
              "name": "createdAt",
              "type": "uint256"
            },
            {
              "internalType": "uint256",
              "name": "updatedAt",
              "type": "uint256"
            }
          ],
          "internalType": "struct InternshipCertification.Certificate",
          "name": "",
          "type": "tuple"
        }
      ],
      "stateMutability": "view",
      "type": "function"
    },
    {
      "inputs": [
        {
          "internalType": "string",
          "name": "_companyId",
          "type": "string"
        }
      ],
      "name": "getCompanyCertificates",
      "outputs": [
        {
          "internalType": "bytes32[]",
          "name": "",
          "type": "bytes32[]"
        }
      ],
      "stateMutability": "view",
      "type": "function"
    },
    {
      "inputs": [
        {
          "internalType": "bytes32",
          "name": "_certHash",
          "type": "bytes32"
        }
      ],
      "name": "getRequestStatus",
      "outputs": [
        {
          "components": [
            {
              "internalType": "bytes32",
              "name": "certHash",
              "type": "bytes32"
            },
            {
              "internalType": "string",
              "name": "studentId",
              "type": "string"
            },
            {
              "internalType": "string",
              "name": "universityId",
              "type": "string"
            },
            {
              "internalType": "string",
              "name": "companyId",
              "type": "string"
            },
            {
              "internalType": "uint256",
              "name": "startDate",
              "type": "uint256"
            },
            {
              "internalType": "uint256",
              "name": "endDate",
              "type": "uint256"
            },
            {
              "internalType": "string",
              "name": "contentHash",
              "type": "string"
            },
            {
              "internalType": "bool",
              "name": "universityConfirmed",
              "type": "bool"
            },
            {
              "internalType": "bool",
              "name": "companyConfirmed",
              "type": "bool"
            },
            {
              "internalType": "address",
              "name": "universityAddr",
              "type": "address"
            },
            {
              "internalType": "address",
              "name": "companyAddr",
              "type": "address"
            },
            {
              "internalType": "bool",
              "name": "finalized",
              "type": "bool"
            },
            {
              "internalType": "uint256",
              "name": "createdAt",
              "type": "uint256"
            }
          ],
          "internalType": "struct InternshipCertification.CertificateRequest",
          "name": "",
          "type": "tuple"
        }
      ],
      "stateMutability": "view",
      "type": "function"
    },
    {
      "inputs": [
        {
          "internalType": "bytes32",
          "name": "role",
          "type": "bytes32"
        }
      ],
      "name": "getRoleAdmin",
      "outputs": [
        {
          "internalType": "bytes32",
          "name": "",
          "type": "bytes32"
        }
      ],
      "stateMutability": "view",
      "type": "function"
    },
    {
      "inputs": [],
      "name": "getStatistics",
      "outputs": [
        {
          "internalType": "uint256",
          "name": "total",
          "type": "uint256"
        },
        {
          "internalType": "uint256",
          "name": "active",
          "type": "uint256"
        },
        {
          "internalType": "uint256",
          "name": "revoked",
          "type": "uint256"
        }
      ],
      "stateMutability": "view",
      "type": "function"
    },
    {
      "inputs": [
        {
          "internalType": "address",
          "name": "_student",
          "type": "address"
        }
      ],
      "name": "getStudentCertificates",
      "outputs": [
        {
          "internalType": "bytes32[]",
          "name": "",
          "type": "bytes32[]"
        }
      ],
      "stateMutability": "view",
      "type": "function"
    },
    {
      "inputs": [
        {
          "internalType": "string",
          "name": "_universityId",
          "type": "string"
        }
      ],
      "name": "getUniversityCertificates",
      "outputs": [
        {
          "internalType": "bytes32[]",
          "name": "",
          "type": "bytes32[]"
        }
      ],
      "stateMutability": "view",
      "type": "function"
    },
    {
      "inputs": [
        {
          "internalType": "address",
          "name": "_account",
          "type": "address"
        },
        {
          "internalType": "string",
          "name": "_companyId",
          "type": "string"
        }
      ],
      "name": "grantCompanyRole",
      "outputs": [],
      "stateMutability": "nonpayable",
      "type": "function"
    },
    {
      "inputs": [
        {
          "internalType": "bytes32",
          "name": "role",
          "type": "bytes32"
        },
        {
          "internalType": "address",
          "name": "account",
          "type": "address"
        }
      ],
      "name": "grantRole",
      "outputs": [],
      "stateMutability": "nonpayable",
      "type": "function"
    },
    {
      "inputs": [
        {
          "internalType": "address",
          "name": "_account",
          "type": "address"
        },
        {
          "internalType": "string",
          "name": "_universityId",
          "type": "string"
        }
      ],
      "name": "grantUniversityRole",
      "outputs": [],
      "stateMutability": "nonpayable",
      "type": "function"
    },
    {
      "inputs": [
        {
          "internalType": "bytes32",
          "name": "role",
          "type": "bytes32"
        },
        {
          "internalType": "address",
          "name": "account",
          "type": "address"
        }
      ],
      "name": "hasRole",
      "outputs": [
        {
          "internalType": "bool",
          "name": "",
          "type": "bool"
        }
      ],
      "stateMutability": "view",
      "type": "function"
    },
    {
      "inputs": [
        {
          "internalType": "bytes32",
          "name": "_certHash",
          "type": "bytes32"
        }
      ],
      "name": "isCertificateExpired",
      "outputs": [
        {
          "internalType": "bool",
          "name": "",
          "type": "bool"
        }
      ],
      "stateMutability": "view",
      "type": "function"
    },
    {
      "inputs": [
        {
          "internalType": "bytes32",
          "name": "_certHash",
          "type": "bytes32"
        }
      ],
      "name": "isValidCertificate",
      "outputs": [
        {
          "internalType": "bool",
          "name": "",
          "type": "bool"
        }
      ],
      "stateMutability": "view",
      "type": "function"
    },
    {
      "inputs": [
        {
          "internalType": "bytes32",
          "name": "_certHash",
          "type": "bytes32"
        }
      ],
      "name": "logVerification",
      "outputs": [],
      "stateMutability": "nonpayable",
      "type": "function"
    },
    {
      "inputs": [],
      "name": "pause",
      "outputs": [],
      "stateMutability": "nonpayable",
      "type": "function"
    },
    {
      "inputs": [],
      "name": "paused",
      "outputs": [
        {
          "internalType": "bool",
          "name": "",
          "type": "bool"
        }
      ],
      "stateMutability": "view",
      "type": "function"
    },
    {
      "inputs": [
        {
          "internalType": "bytes32",
          "name": "",
          "type": "bytes32"
        }
      ],
      "name": "pendingRequests",
      "outputs": [
        {
          "internalType": "bytes32",
          "name": "certHash",
          "type": "bytes32"
        },
        {
          "internalType": "string",
          "name": "studentId",
          "type": "string"
        },
        {
          "internalType": "string",
          "name": "universityId",
          "type": "string"
        },
        {
          "internalType": "string",
          "name": "companyId",
          "type": "string"
        },
        {
          "internalType": "uint256",
          "name": "startDate",
          "type": "uint256"
        },
        {
          "internalType": "uint256",
          "name": "endDate",
          "type": "uint256"
        },
        {
          "internalType": "string",
          "name": "contentHash",
          "type": "string"
        },
        {
          "internalType": "bool",
          "name": "universityConfirmed",
          "type": "bool"
        },
        {
          "internalType": "bool",
          "name": "companyConfirmed",
          "type": "bool"
        },
        {
          "internalType": "address",
          "name": "universityAddr",
          "type": "address"
        },
        {
          "internalType": "address",
          "name": "companyAddr",
          "type": "address"
        },
        {
          "internalType": "bool",
          "name": "finalized",
          "type": "bool"
        },
        {
          "internalType": "uint256",
          "name": "createdAt",
          "type": "uint256"
        }
      ],
      "stateMutability": "view",
      "type": "function"
    },
    {
      "inputs": [
        {
          "internalType": "bytes32",
          "name": "role",
          "type": "bytes32"
        },
        {
          "internalType": "address",
          "name": "callerConfirmation",
          "type": "address"
        }
      ],
      "name": "renounceRole",
      "outputs": [],
      "stateMutability": "nonpayable",
      "type": "function"
    },
    {
      "inputs": [
        {
          "internalType": "bytes32",
          "name": "_certHash",
          "type": "bytes32"
        },
        {
          "internalType": "string",
          "name": "_reason",
          "type": "string"
        }
      ],
      "name": "revokeCertificate",
      "outputs": [],
      "stateMutability": "nonpayable",
      "type": "function"
    },
    {
      "inputs": [
        {
          "internalType": "bytes32",
          "name": "role",
          "type": "bytes32"
        },
        {
          "internalType": "address",
          "name": "account",
          "type": "address"
        }
      ],
      "name": "revokeRole",
      "outputs": [],
      "stateMutability": "nonpayable",
      "type": "function"
    },
    {
      "inputs": [],
      "name": "revokedCertificates",
      "outputs": [
        {
          "internalType": "uint256",
          "name": "",
          "type": "uint256"
        }
      ],
      "stateMutability": "view",
      "type": "function"
    },
    {
      "inputs": [
        {
          "internalType": "address",
          "name": "",
          "type": "address"
        },
        {
          "internalType": "uint256",
          "name": "",
          "type": "uint256"
        }
      ],
      "name": "studentCertificates",
      "outputs": [
        {
          "internalType": "bytes32",
          "name": "",
          "type": "bytes32"
        }
      ],
      "stateMutability": "view",
      "type": "function"
    },
    {
      "inputs": [
        {
          "internalType": "bytes32",
          "name": "_certHash",
          "type": "bytes32"
        },
        {
          "internalType": "string",
          "name": "_studentId",
          "type": "string"
        },
        {
          "internalType": "string",
          "name": "_universityId",
          "type": "string"
        },
        {
          "internalType": "string",
          "name": "_companyId",
          "type": "string"
        },
        {
          "internalType": "uint256",
          "name": "_startDate",
          "type": "uint256"
        },
        {
          "internalType": "uint256",
          "name": "_endDate",
          "type": "uint256"
        },
        {
          "internalType": "string",
          "name": "_contentHash",
          "type": "string"
        }
      ],
      "name": "submitCertificateRequest",
      "outputs": [],
      "stateMutability": "nonpayable",
      "type": "function"
    },
    {
      "inputs": [
        {
          "internalType": "bytes4",
          "name": "interfaceId",
          "type": "bytes4"
        }
      ],
      "name": "supportsInterface",
      "outputs": [
        {
          "internalType": "bool",
          "name": "",
          "type": "bool"
        }
      ],
      "stateMutability": "view",
      "type": "function"
    },
    {
      "inputs": [],
      "name": "totalCertificates",
      "outputs": [
        {
          "internalType": "uint256",
          "name": "",
          "type": "uint256"
        }
      ],
      "stateMutability": "view",
      "type": "function"
    },
    {
      "inputs": [
        {
          "internalType": "string",
          "name": "",
          "type": "string"
        },
        {
          "internalType": "uint256",
          "name": "",
          "type": "uint256"
        }
      ],
      "name": "universityCertificates",
      "outputs": [
        {
          "internalType": "bytes32",
          "name": "",
          "type": "bytes32"
        }
      ],
      "stateMutability": "view",
      "type": "function"
    },
    {
      "inputs": [
        {
          "internalType": "bytes32",
          "name": "_certHash",
          "type": "bytes32"
        }
      ],
      "name": "universityConfirm",
      "outputs": [],
      "stateMutability": "nonpayable",
      "type": "function"
    },
    {
      "inputs": [],
      "name": "unpause",
      "outputs": [],
      "stateMutability": "nonpayable",
      "type": "function"
    },
    {
      "inputs": [
        {
          "internalType": "bytes32",
          "name": "_certHash",
          "type": "bytes32"
        },
        {
          "internalType": "string",
          "name": "_contentHash",
          "type": "string"
        }
      ],
      "name": "updateContentHash",
      "outputs": [],
      "stateMutability": "nonpayable",
      "type": "function"
    },
    {
      "inputs": [
        {
          "internalType": "bytes32",
          "name": "_certHash",
          "type": "bytes32"
        }
      ],
      "name": "verifyCertificate",
      "outputs": [
        {
          "internalType": "bool",
          "name": "isValid",
          "type": "bool"
        },
        {
          "components": [
            {
              "internalType": "bytes32",
              "name": "certHash",
              "type": "bytes32"
            },
            {
              "internalType": "address",
              "name": "issuer",
              "type": "address"
            },
            {
              "internalType": "address",
              "name": "student",
              "type": "address"
            },
            {
              "internalType": "string",
              "name": "studentId",
              "type": "string"
            },
            {
              "internalType": "string",
              "name": "universityId",
              "type": "string"
            },
            {
              "internalType": "string",
              "name": "companyId",
              "type": "string"
            },
            {
              "internalType": "uint256",
              "name": "issueDate",
              "type": "uint256"
            },
            {
              "internalType": "uint256",
              "name": "startDate",
              "type": "uint256"
            },
            {
              "internalType": "uint256",
              "name": "endDate",
              "type": "uint256"
            },
            {
              "internalType": "enum InternshipCertification.CertificateStatus",
              "name": "status",
              "type": "uint8"
            },
            {
              "internalType": "string",
              "name": "contentHash",
              "type": "string"
            },
            {
              "internalType": "uint256",
              "name": "createdAt",
              "type": "uint256"
            },
            {
              "internalType": "uint256",
              "name": "updatedAt",
              "type": "uint256"
            }
          ],
          "internalType": "struct InternshipCertification.Certificate",
          "name": "certificate",
          "type": "tuple"
        },
        {
          "internalType": "bool",
          "name": "isExpired",
          "type": "bool"
        }
      ],
      "stateMutability": "view",
      "type": "function"
    },
    {
      "inputs": [
        {
          "internalType": "bytes32",
          "name": "_certHash",
          "type": "bytes32"
        },
        {
          "internalType": "string",
          "name": "_contentHash",
          "type": "string"
        }
      ],
      "name": "verifyContentIntegrity",
      "outputs": [
        {
          "internalType": "bool",
          "name": "",
          "type": "bool"
        }
      ],
      "stateMutability": "view",
      "type": "function"
    }
  ],
  "bytecode": "0x60806040523480156200001157600080fd5b5060016002556200002460003362000058565b50620000517fa49807205ce4d355092ef5a8a18f56e8913cf4a201fbe287825b095693c217753362000058565b5062000107565b6000828152602081815260408083206001600160a01b038516845290915281205460ff16620000fd576000838152602081815260408083206001600160a01b03861684529091529020805460ff19166001179055620000b43390565b6001600160a01b0316826001600160a01b0316847f2f8788117e7eff1d82e926ec794901d17c78024a50270940304540a733656f0d60405160405180910390a450600162000101565b5060005b92915050565b61459180620001176000396000f3fe608060405234801561001057600080fd5b50600436106102745760003560e01c80636ac5c6eb1161015157806391d14854116100c3578063d547741f11610087578063d547741f146105ab578063d55d4424146105be578063ebc63bc0146105d1578063f333fe08146105e4578063f561a8d914610604578063fe5abe321461060f57600080fd5b806391d1485414610557578063a217fddf1461056a578063a35ff82b14610572578063ab9ebe0014610585578063c3934f0e1461059857600080fd5b80638261d264116101155780638261d264146104e15780638456cb59146104f4578063850c1768146104fc5780638bbb2a991461051e5780638ccb28e9146105315780638ceba9de1461054457600080fd5b80636ac5c6eb146104715780636af78abe14610484578063742f06881461048d57806375b238fc146104b95780637b5799ab146104ce57600080fd5b8063372d6b27116101ea57806355d3aed1116101ae57806355d3aed11461041157806357f7c13d14610424578063596b772f146104375780635b686a0a146104405780635bf4adfb146104535780635c975abb1461046657600080fd5b8063372d6b271461039d5780633d178414146103c15780633f4ba83a146103d657806345d07664146103de57806346278935146103fe57600080fd5b8063248a9ca31161023c578063248a9ca31461030a5780632795ad201461032d5780632d813acf146103595780632f2ff15d1461036e57806334c89a831461038157806336568abe1461038a57600080fd5b806301ffc9a71461027957806305bd8d7e146102a15780630aa857af146102c2578063109992ce146102e25780631c9ee11a146102f5575b600080fd5b61028c61028736600461356e565b610622565b60405190151581526020015b60405180910390f35b6102b46102af366004613654565b610659565b604051908152602001610298565b6102d56102d0366004613698565b610699565b60405161029891906136d4565b6102b46102f0366004613654565b610709565b6102b460008051602061451c83398151915281565b6102b4610318366004613718565b60009081526020819052604090206001015490565b61034061033b366004613718565b610734565b6040516102989d9c9b9a99989796959493929190613781565b61036c610367366004613830565b6109cd565b005b61036c61037c366004613915565b610e2d565b6102b4600a5481565b61036c610398366004613915565b610e58565b600954600a54600b5460408051938452602084019290925290820152606001610298565b6102b46000805160206144fc83398151915281565b61036c610e90565b6103f16103ec366004613718565b610eb3565b6040516102989190613941565b61036c61040c366004613bd1565b61127a565b61028c61041f366004613cdc565b61179f565b61036c610432366004613718565b61180e565b6102b460095481565b61028c61044e366004613718565b611a08565b61036c610461366004613cdc565b611a66565b60015460ff1661028c565b61036c61047f366004613cdc565b611c26565b6102b4600b5481565b6104a061049b366004613718565b611d41565b6040516102989d9c9b9a99989796959493929190613d5a565b6102b460008051602061453c83398151915281565b6102b46104dc366004613718565b611fd6565b6102b46104ef366004613e0e565b611ff7565b61036c61239d565b61050f61050a366004613718565b6123bd565b60405161029893929190613fe5565b61036c61052c366004614012565b61272d565b61036c61053f366004614012565b6127b2565b61028c610552366004613718565b61282a565b61028c610565366004613915565b612835565b6102b4600081565b61036c610580366004613718565b61285e565b6102d5610593366004614049565b612a4e565b6102b46105a636600461406b565b612b47565b61036c6105b9366004613915565b612b63565b6102d56105cc366004613698565b612b88565b6102d56105df366004614095565b612b9a565b6105f76105f2366004613718565b612c04565b60405161029891906140b0565b6102b4630966018081565b61036c61061d366004613718565b612f3f565b60006001600160e01b03198216637965db0b60e01b148061065357506301ffc9a760e01b6001600160e01b03198316145b92915050565b8151602081840181018051600682529282019185019190912091905280548290811061068457600080fd5b90600052602060002001600091509150505481565b60606006826040516106ab91906140c3565b90815260408051918290036020908101832080548083028501830190935282845291908301828280156106fd57602002820191906000526020600020905b8154815260200190600101908083116106e9575b50505050509050919050565b8151602081840181018051600782529282019185019190912091905280548290811061068457600080fd5b60046020526000908152604090208054600182018054919291610756906140df565b80601f0160208091040260200160405190810160405280929190818152602001828054610782906140df565b80156107cf5780601f106107a4576101008083540402835291602001916107cf565b820191906000526020600020905b8154815290600101906020018083116107b257829003601f168201915b5050505050908060020180546107e4906140df565b80601f0160208091040260200160405190810160405280929190818152602001828054610810906140df565b801561085d5780601f106108325761010080835404028352916020019161085d565b820191906000526020600020905b81548152906001019060200180831161084057829003601f168201915b505050505090806003018054610872906140df565b80601f016020809104026020016040519081016040528092919081815260200182805461089e906140df565b80156108eb5780601f106108c0576101008083540402835291602001916108eb565b820191906000526020600020905b8154815290600101906020018083116108ce57829003601f168201915b50505050509080600401549080600501549080600601805461090c906140df565b80601f0160208091040260200160405190810160405280929190818152602001828054610938906140df565b80156109855780601f1061095a57610100808354040283529160200191610985565b820191906000526020600020905b81548152906001019060200180831161096857829003601f168201915b50505060078401546008850154600990950154939460ff808316956101008404821695506001600160a01b03620100009094048416945092821692600160a01b90920416908d565b6109d5612fed565b6109dd613013565b6109f560008051602061453c83398151915233612835565b80610a135750610a136000805160206144fc83398151915233612835565b610a795760405162461bcd60e51b815260206004820152602c60248201527f4f6e6c792061646d696e206f7220756e69766572736974792063616e2073756260448201526b6d697420726571756573747360a01b60648201526084015b60405180910390fd5b60008781526004602052604090206009015415610ad15760405162461bcd60e51b81526020600482015260166024820152755265717565737420616c72656164792065786973747360501b6044820152606401610a70565b6000878152600360205260409020600b015415610b305760405162461bcd60e51b815260206004820152601a60248201527f436572746966696361746520616c7265616479206578697374730000000000006044820152606401610a70565b6000865111610b775760405162461bcd60e51b815260206004820152601360248201527214dd1d59195b9d081251081c995c5d5a5c9959606a1b6044820152606401610a70565b818310610bbb5760405162461bcd60e51b8152602060048201526012602482015271496e76616c696420646174652072616e676560701b6044820152606401610a70565b604080516101a0810182528881526020808201898152828401899052606083018890526080830187905260a0830186905260c08301859052600060e084018190526101008401819052610120840181905261014084018190526101608401819052426101808501528b815260049092529290208151815591519091906001820190610c469082614161565b5060408201516002820190610c5b9082614161565b5060608201516003820190610c709082614161565b506080820151600482015560a0820151600582015560c08201516006820190610c999082614161565b5060e08201516007820180546101008086015161012087015161ffff1990931694151561ff00191694909417931515029290921762010000600160b01b031916620100006001600160a01b0393841602179055610140830151600883018054610160860151929093166001600160a81b031990931692909217600160a01b9115159190910217905561018090910151600990910155610d466000805160206144fc83398151915233612835565b15610de057600087815260046020526040908190206007018054620100003390810261ff01600160b01b031990921691909117600117909155905188907fbaf6cb8bb5b4864473028e02d71ffba757df6ca32d81e04c33662e807ca5256790610dd79042906040808252600a9082015269554e495645525349545960b01b6060820152602081019190915260800190565b60405180910390a35b867f1ba5f0cdc658dd3cc140200dee1c29b46a8b255e9176dae1424fdb915b7e70028742604051610e12929190614220565b60405180910390a2610e246001600255565b50505050505050565b600082815260208190526040902060010154610e488161303b565b610e528383613045565b50505050565b6001600160a01b0381163314610e815760405163334bd91960e11b815260040160405180910390fd5b610e8b82826130d7565b505050565b60008051602061453c833981519152610ea88161303b565b610eb0613142565b50565b610f39604051806101a001604052806000801916815260200160608152602001606081526020016060815260200160008152602001600081526020016060815260200160001515815260200160001515815260200160006001600160a01b0316815260200160006001600160a01b03168152602001600015158152602001600081525090565b6000828152600460205260408120600901549003610f925760405162461bcd60e51b815260206004820152601660248201527514995c5d595cdd08191bd95cc81b9bdd08195e1a5cdd60521b6044820152606401610a70565b60046000838152602001908152602001600020604051806101a001604052908160008201548152602001600182018054610fcb906140df565b80601f0160208091040260200160405190810160405280929190818152602001828054610ff7906140df565b80156110445780601f1061101957610100808354040283529160200191611044565b820191906000526020600020905b81548152906001019060200180831161102757829003601f168201915b5050505050815260200160028201805461105d906140df565b80601f0160208091040260200160405190810160405280929190818152602001828054611089906140df565b80156110d65780601f106110ab576101008083540402835291602001916110d6565b820191906000526020600020905b8154815290600101906020018083116110b957829003601f168201915b505050505081526020016003820180546110ef906140df565b80601f016020809104026020016040519081016040528092919081815260200182805461111b906140df565b80156111685780601f1061113d57610100808354040283529160200191611168565b820191906000526020600020905b81548152906001019060200180831161114b57829003601f168201915b505050505081526020016004820154815260200160058201548152602001600682018054611195906140df565b80601f01602080910402602001604051908101604052809291908181526020018280546111c1906140df565b801561120e5780601f106111e35761010080835404028352916020019161120e565b820191906000526020600020905b8154815290600101906020018083116111f157829003601f168201915b5050509183525050600782015460ff8082161515602084015261010082048116151560408401526001600160a01b03620100009092048216606084015260088401549182166080840152600160a01b90910416151560a082015260099091015460c09091015292915050565b611282612fed565b61128a613013565b6112a260008051602061453c83398151915233612835565b806112c057506112c06000805160206144fc83398151915233612835565b6113185760405162461bcd60e51b815260206004820152602360248201527f4e6f7420617574686f72697a656420666f72206261746368206f7065726174696044820152626f6e7360e81b6064820152608401610a70565b8551875114801561132a575084518651145b8015611337575081518551145b8015611344575080518251145b6113885760405162461bcd60e51b8152602060048201526015602482015274082e4e4c2f240d8cadccee8d040dad2e6dac2e8c6d605b1b6044820152606401610a70565b6032875111156113da5760405162461bcd60e51b815260206004820152601860248201527f42617463682073697a652065786365656473206c696d697400000000000000006044820152606401610a70565b60005b875181101561179457600360008983815181106113fc576113fc614242565b60200260200101518152602001908152602001600020600b0154600003611782576000600360008a848151811061143557611435614242565b60200260200101518152602001908152602001600020905088828151811061145f5761145f614242565b602090810291909101015181556001810180546001600160a01b03191633179055875188908390811061149457611494614242565b60200260200101518160020160006101000a8154816001600160a01b0302191690836001600160a01b031602179055508682815181106114d6576114d6614242565b60200260200101518160030190816114ee9190614161565b50600481016114fd8782614161565b506005810161150c8682614161565b50426006820155835184908390811061152757611527614242565b6020026020010151816007018190555082828151811061154957611549614242565b6020908102919091010151600882015560098101805460ff1916600117905542600b8201819055600c82015587516005906000908a908590811061158f5761158f614242565b60200260200101516001600160a01b03166001600160a01b031681526020019081526020016000208983815181106115c9576115c9614242565b602090810291909101810151825460018101845560009384529190922001556040516006906115f99088906140c3565b908152602001604051809103902089838151811061161957611619614242565b602090810291909101810151825460018101845560009384529190922001556040516007906116499087906140c3565b908152602001604051809103902089838151811061166957611669614242565b6020908102919091018101518254600181018455600093845291909220015588516008908a908490811061169f5761169f614242565b602090810291909101810151825460018101845560009384529183209091015560098054916116cd8361426e565b9091555050600a80549060006116e28361426e565b91905055508782815181106116f9576116f9614242565b60200260200101516001600160a01b0316336001600160a01b03168a848151811061172657611726614242565b60200260200101517f04291c3e4d96a69b77175386c5338c47c3205824545194cbce54d745591f49fd8a868151811061176157611761614242565b602002602001015142604051611778929190614220565b60405180910390a4505b8061178c8161426e565b9150506113dd565b50610e246001600255565b6000828152600360205260408120600b0154839082036117d15760405162461bcd60e51b8152600401610a7090614287565b828051906020012060036000868152602001908152602001600020600a016040516117fc9190614331565b60405180910390201491505092915050565b611816612fed565b61182e60008051602061451c83398151915233612835565b6118685760405162461bcd60e51b815260206004820152600b60248201526a4e6f7420636f6d70616e7960a81b6044820152606401610a70565b600081815260046020526040812060098101549091036118be5760405162461bcd60e51b815260206004820152601160248201527014995c5d595cdd081b9bdd08199bdd5b99607a1b6044820152606401610a70565b6008810154600160a01b900460ff161561190e5760405162461bcd60e51b8152602060048201526011602482015270105b1c9958591e48199a5b985b1a5e9959607a1b6044820152606401610a70565b6007810154610100900460ff16156119685760405162461bcd60e51b815260206004820152601c60248201527f416c726561647920636f6e6669726d656420627920636f6d70616e79000000006044820152606401610a70565b60078101805461ff0019166101001790556008810180546001600160a01b0319163390811790915560405183907fbaf6cb8bb5b4864473028e02d71ffba757df6ca32d81e04c33662e807ca52567906119e6904290604080825260079082015266434f4d50414e5960c81b6060820152602081019190915260800190565b60405180910390a3600781015460ff1615611a0457611a0482613194565b5050565b6000818152600360205260408120600b015415801590611a4f5750600160008381526003602081905260409091206009015460ff1690811115611a4d57611a4d613d22565b145b80156106535750611a5f82613403565b1592915050565b611a6e612fed565b6000828152600360205260408120600b0154839103611a9f5760405162461bcd60e51b8152600401610a7090614287565b60008381526003602052604090206001015483906001600160a01b0316331480611adc5750611adc60008051602061453c83398151915233612835565b611b195760405162461bcd60e51b815260206004820152600e60248201526d139bdd08185d5d1a1bdc9a5e995960921b6044820152606401610a70565b600160008581526003602081905260409091206009015460ff1690811115611b4357611b43613d22565b14611b905760405162461bcd60e51b815260206004820152601960248201527f4365727469666963617465206973206e6f7420616374697665000000000000006044820152606401610a70565b600084815260036020526040812060098101805460ff1916600217905542600c90910155600a805491611bc28361433d565b9091555050600b8054906000611bd78361426e565b9190505550336001600160a01b0316847fba6b1f45b9140a00c5c5541e536fa1e9aff39c507267e24a5dfba0074f15aaca8542604051611c18929190614220565b60405180910390a350505050565b611c2e612fed565b6000828152600360205260408120600b0154839103611c5f5760405162461bcd60e51b8152600401610a7090614287565b60008381526003602052604090206001015483906001600160a01b0316331480611c9c5750611c9c60008051602061453c83398151915233612835565b611cd95760405162461bcd60e51b815260206004820152600e60248201526d139bdd08185d5d1a1bdc9a5e995960921b6044820152606401610a70565b6000848152600360205260409020600a01611cf48482614161565b5060008481526003602090815260409182902042600c9091018190559151918252339186917f3e1d1cd7799de1be1f09f19c3ae4c604cfdb409102bef1cd7570fc3a133a99d19101611c18565b6003602081905260009182526040909120805460018201546002830154938301805492946001600160a01b0392831694921692611d7d906140df565b80601f0160208091040260200160405190810160405280929190818152602001828054611da9906140df565b8015611df65780601f10611dcb57610100808354040283529160200191611df6565b820191906000526020600020905b815481529060010190602001808311611dd957829003601f168201915b505050505090806004018054611e0b906140df565b80601f0160208091040260200160405190810160405280929190818152602001828054611e37906140df565b8015611e845780601f10611e5957610100808354040283529160200191611e84565b820191906000526020600020905b815481529060010190602001808311611e6757829003601f168201915b505050505090806005018054611e99906140df565b80601f0160208091040260200160405190810160405280929190818152602001828054611ec5906140df565b8015611f125780601f10611ee757610100808354040283529160200191611f12565b820191906000526020600020905b815481529060010190602001808311611ef557829003601f168201915b5050506006840154600785015460088601546009870154600a880180549798949793965091945060ff169291611f47906140df565b80601f0160208091040260200160405190810160405280929190818152602001828054611f73906140df565b8015611fc05780601f10611f9557610100808354040283529160200191611fc0565b820191906000526020600020905b815481529060010190602001808311611fa357829003601f168201915b50505050509080600b01549080600c015490508d565b60088181548110611fe657600080fd5b600091825260209091200154905081565b6000612001612fed565b612009613013565b61202160008051602061453c83398151915233612835565b8061203f575061203f6000805160206144fc83398151915233612835565b8061205d575061205d60008051602061451c83398151915233612835565b6120b75760405162461bcd60e51b815260206004820152602560248201527f4e6f7420617574686f72697a656420746f206372656174652063657274696669604482015264636174657360d81b6064820152608401610a70565b6000898152600360205260409020600b0154156121165760405162461bcd60e51b815260206004820152601a60248201527f436572746966696361746520616c7265616479206578697374730000000000006044820152606401610a70565b600087511161215d5760405162461bcd60e51b815260206004820152601360248201527214dd1d59195b9d081251081c995c5d5a5c9959606a1b6044820152606401610a70565b8284106121a15760405162461bcd60e51b8152602060048201526012602482015271496e76616c696420646174652072616e676560701b6044820152606401610a70565b60008981526003602081905260409091208a8155600181018054336001600160a01b0319918216179091556002820180549091166001600160a01b038c161790559081016121ef8982614161565b50600481016121fe8882614161565b506005810161220d8782614161565b50426006820155600781018590556008810184905560098101805460ff19166001179055600a810161223f8482614161565b5042600b8201819055600c8201556001600160a01b0389166000908152600560209081526040808320805460018101825590845291909220018b90555160069061228a9089906140c3565b908152604051908190036020908101822080546001810182556000918252919020018b90556007906122bd9088906140c3565b908152604051602091819003820190208054600180820183556000928352928220018c905560088054928301815581527ff3f7a9fe364faab93b216da50a3214154f22a0a2b415b23a84c8169e8b636ee39091018b905560098054916123228361426e565b9091555050600a80549060006123378361426e565b9190505550886001600160a01b0316336001600160a01b03168b7f04291c3e4d96a69b77175386c5338c47c3205824545194cbce54d745591f49fd8b42604051612382929190614220565b60405180910390a45050600160025550959695505050505050565b60008051602061453c8339815191526123b58161303b565b610eb061346e565b60006123c7613505565b6000838152600360205260408120600b0154849082036123f95760405162461bcd60e51b8152600401610a7090614287565b60008581526003602081815260409283902083516101a0810185528154815260018201546001600160a01b03908116938201939093526002820154909216938201939093529082018054919291606084019190612455906140df565b80601f0160208091040260200160405190810160405280929190818152602001828054612481906140df565b80156124ce5780601f106124a3576101008083540402835291602001916124ce565b820191906000526020600020905b8154815290600101906020018083116124b157829003601f168201915b505050505081526020016004820180546124e7906140df565b80601f0160208091040260200160405190810160405280929190818152602001828054612513906140df565b80156125605780601f1061253557610100808354040283529160200191612560565b820191906000526020600020905b81548152906001019060200180831161254357829003601f168201915b50505050508152602001600582018054612579906140df565b80601f01602080910402602001604051908101604052809291908181526020018280546125a5906140df565b80156125f25780601f106125c7576101008083540402835291602001916125f2565b820191906000526020600020905b8154815290600101906020018083116125d557829003601f168201915b5050509183525050600682015460208201526007820154604082015260088201546060820152600982015460809091019060ff16600381111561263757612637613d22565b600381111561264857612648613d22565b8152602001600a8201805461265c906140df565b80601f0160208091040260200160405190810160405280929190818152602001828054612688906140df565b80156126d55780601f106126aa576101008083540402835291602001916126d5565b820191906000526020600020905b8154815290600101906020018083116126b857829003601f168201915b50505050508152602001600b8201548152602001600c8201548152505092506126fd85613403565b91506001836101200151600381111561271857612718613d22565b148015612723575081155b9350509193909250565b60008051602061453c8339815191526127458161303b565b61275d6000805160206144fc83398151915284610e2d565b826001600160a01b03166000805160206144fc8339815191527f7d97ae024533b28b4a3151fe793b98bf1e6f708138be69dd2eb9de4c53ae9554846040516127a59190614354565b60405180910390a3505050565b60008051602061453c8339815191526127ca8161303b565b6127e260008051602061451c83398151915284610e2d565b826001600160a01b031660008051602061451c8339815191527f7d97ae024533b28b4a3151fe793b98bf1e6f708138be69dd2eb9de4c53ae9554846040516127a59190614354565b600061065382613403565b6000918252602082815260408084206001600160a01b0393909316845291905290205460ff1690565b612866612fed565b61287e6000805160206144fc83398151915233612835565b6128bb5760405162461bcd60e51b815260206004820152600e60248201526d4e6f7420756e697665727369747960901b6044820152606401610a70565b600081815260046020526040812060098101549091036129115760405162461bcd60e51b815260206004820152601160248201527014995c5d595cdd081b9bdd08199bdd5b99607a1b6044820152606401610a70565b6008810154600160a01b900460ff16156129615760405162461bcd60e51b8152602060048201526011602482015270105b1c9958591e48199a5b985b1a5e9959607a1b6044820152606401610a70565b600781015460ff16156129b65760405162461bcd60e51b815260206004820152601f60248201527f416c726561647920636f6e6669726d656420627920756e6976657273697479006044820152606401610a70565b600781018054620100003390810261ff01600160b01b03199092169190911760011790915560408051818152600a9181019190915269554e495645525349545960b01b606082015242602082015283907fbaf6cb8bb5b4864473028e02d71ffba757df6ca32d81e04c33662e807ca525679060800160405180910390a36007810154610100900460ff1615611a0457611a0482613194565b6008546060908310612a6f5750604080516000815260208101909152610653565b6000612a7b8385614367565b600854909150811115612a8d57506008545b6000612a99858361437a565b6001600160401b03811115612ab057612ab061359f565b604051908082528060200260200182016040528015612ad9578160200160208202803683370190505b509050845b82811015612b3e5760088181548110612af957612af9614242565b9060005260206000200154828783612b11919061437a565b81518110612b2157612b21614242565b602090810291909101015280612b368161426e565b915050612ade565b50949350505050565b6005602052816000526040600020818154811061068457600080fd5b600082815260208190526040902060010154612b7e8161303b565b610e5283836130d7565b60606007826040516106ab91906140c3565b6001600160a01b0381166000908152600560209081526040918290208054835181840281018401909452808452606093928301828280156106fd57602002820191906000526020600020908154815260200190600101908083116106e95750505050509050919050565b612c0c613505565b6000828152600360205260408120600b0154839103612c3d5760405162461bcd60e51b8152600401610a7090614287565b60008381526003602081815260409283902083516101a0810185528154815260018201546001600160a01b03908116938201939093526002820154909216938201939093529082018054919291606084019190612c99906140df565b80601f0160208091040260200160405190810160405280929190818152602001828054612cc5906140df565b8015612d125780601f10612ce757610100808354040283529160200191612d12565b820191906000526020600020905b815481529060010190602001808311612cf557829003601f168201915b50505050508152602001600482018054612d2b906140df565b80601f0160208091040260200160405190810160405280929190818152602001828054612d57906140df565b8015612da45780601f10612d7957610100808354040283529160200191612da4565b820191906000526020600020905b815481529060010190602001808311612d8757829003601f168201915b50505050508152602001600582018054612dbd906140df565b80601f0160208091040260200160405190810160405280929190818152602001828054612de9906140df565b8015612e365780601f10612e0b57610100808354040283529160200191612e36565b820191906000526020600020905b815481529060010190602001808311612e1957829003601f168201915b5050509183525050600682015460208201526007820154604082015260088201546060820152600982015460809091019060ff166003811115612e7b57612e7b613d22565b6003811115612e8c57612e8c613d22565b8152602001600a82018054612ea0906140df565b80601f0160208091040260200160405190810160405280929190818152602001828054612ecc906140df565b8015612f195780601f10612eee57610100808354040283529160200191612f19565b820191906000526020600020905b815481529060010190602001808311612efc57829003601f168201915b50505050508152602001600b8201548152602001600c8201548152505091505b50919050565b6000818152600360205260408120600b0154829103612f705760405162461bcd60e51b8152600401610a7090614287565b6000600160008481526003602081905260409091206009015460ff1690811115612f9c57612f9c613d22565b148015612faf5750612fad83613403565b155b604080518215158152426020820152919250339185917f59e2013e062a0fec5c3596946414192feb9fa57aa8d47efefcbd610073eedf6591016127a5565b60015460ff16156130115760405163d93c066560e01b815260040160405180910390fd5b565b600280540361303557604051633ee5aeb560e01b815260040160405180910390fd5b60028055565b610eb081336134a9565b60006130518383612835565b6130cf576000838152602081815260408083206001600160a01b03861684529091529020805460ff191660011790556130873390565b6001600160a01b0316826001600160a01b0316847f2f8788117e7eff1d82e926ec794901d17c78024a50270940304540a733656f0d60405160405180910390a4506001610653565b506000610653565b60006130e38383612835565b156130cf576000838152602081815260408083206001600160a01b0386168085529252808320805460ff1916905551339286917ff6391f5c32d9c69d2a47ea670b442974b53935d1edc7fd64eb21e047a839171b9190a4506001610653565b61314a6134e2565b6001805460ff191690557f5db9ee0a495bf2e6ff9c91a7834c1ba4fdd244a5e8aa4e537bd38aeae4b073aa335b6040516001600160a01b03909116815260200160405180910390a1565b6000818152600460209081526040808320600881018054600160a01b60ff60a01b199091161790556003928390529220838155600783015460018281018054620100009093046001600160a01b03166001600160a01b0319938416179055600283018054909216909155909182019061320f9084018261438d565b5060048101613221600284018261438d565b5060058101613233600384018261438d565b5042600682810191909155600483015460078301556005830154600883015560098201805460ff19166001179055600a8201906132729084018261438d565b5042600b8201819055600c820155604051600690613294906002850190614331565b908152604051908190036020908101822080546001810182556000918252919020018490556007906132ca906003850190614331565b9081526040516020918190038201902080546001808201835560009283529282200185905560088054928301815581527ff3f7a9fe364faab93b216da50a3214154f22a0a2b415b23a84c8169e8b636ee3909101849055600980549161332f8361426e565b9091555050600a80549060006133448361426e565b90915550506007820154600883015460408051620100009093046001600160a01b0390811684529091166020830152429082015283907ff0525457752a02801a4289371708b8d5b19c012e81523f063ba23cd2920b1f089060600160405180910390a260078201546040516000916201000090046001600160a01b03169085907f04291c3e4d96a69b77175386c5338c47c3205824545194cbce54d745591f49fd906133f69060018801904290614467565b60405180910390a4505050565b6000818152600360205260408120600b81015482036134255750600092915050565b6002600982015460ff16600381111561344057613440613d22565b0361344e5750600092915050565b6000630966018082600801546134649190614367565b4211949350505050565b613476612fed565b6001805460ff1916811790557f62e78cea01bee320cd4e420270b5ea74000d11b0c9f74754ebdbfc544b05a25833613177565b6134b38282612835565b611a045760405163e2517d3f60e01b81526001600160a01b038216600482015260248101839052604401610a70565b60015460ff1661301157604051638dfc202b60e01b815260040160405180910390fd5b604080516101a08101825260008082526020820181905291810182905260608082018190526080820181905260a082015260c0810182905260e0810182905261010081018290529061012082019081526020016060815260200160008152602001600081525090565b60006020828403121561358057600080fd5b81356001600160e01b03198116811461359857600080fd5b9392505050565b634e487b7160e01b600052604160045260246000fd5b604051601f8201601f191681016001600160401b03811182821017156135dd576135dd61359f565b604052919050565b600082601f8301126135f657600080fd5b81356001600160401b0381111561360f5761360f61359f565b613622601f8201601f19166020016135b5565b81815284602083860101111561363757600080fd5b816020850160208301376000918101602001919091529392505050565b6000806040838503121561366757600080fd5b82356001600160401b0381111561367d57600080fd5b613689858286016135e5565b95602094909401359450505050565b6000602082840312156136aa57600080fd5b81356001600160401b038111156136c057600080fd5b6136cc848285016135e5565b949350505050565b6020808252825182820181905260009190848201906040850190845b8181101561370c578351835292840192918401916001016136f0565b50909695505050505050565b60006020828403121561372a57600080fd5b5035919050565b60005b8381101561374c578181015183820152602001613734565b50506000910152565b6000815180845261376d816020860160208601613731565b601f01601f19169290920160200192915050565b8d81526101a06020820152600061379c6101a083018f613755565b82810360408401526137ae818f613755565b905082810360608401526137c2818e613755565b90508b60808401528a60a084015282810360c08401526137e2818b613755565b9150506137f360e083018915159052565b9515156101008201526001600160a01b03948516610120820152929093166101408301521515610160820152610180015298975050505050505050565b600080600080600080600060e0888a03121561384b57600080fd5b8735965060208801356001600160401b038082111561386957600080fd5b6138758b838c016135e5565b975060408a013591508082111561388b57600080fd5b6138978b838c016135e5565b965060608a01359150808211156138ad57600080fd5b6138b98b838c016135e5565b955060808a0135945060a08a0135935060c08a01359150808211156138dd57600080fd5b506138ea8a828b016135e5565b91505092959891949750929550565b80356001600160a01b038116811461391057600080fd5b919050565b6000806040838503121561392857600080fd5b82359150613938602084016138f9565b90509250929050565b6020815281516020820152600060208301516101a080604085015261396a6101c0850183613755565b91506040850151601f19808685030160608701526139888483613755565b935060608701519150808685030160808701526139a58483613755565b9350608087015160a087015260a087015160c087015260c08701519150808685030160e0870152506139d78382613755565b92505060e08501516101006139ef8187018315159052565b8601519050610120613a048682018315159052565b8601519050610140613a20868201836001600160a01b03169052565b8601519050610160613a3c868201836001600160a01b03169052565b8601519050610180613a518682018315159052565b959095015193019290925250919050565b60006001600160401b03821115613a7b57613a7b61359f565b5060051b60200190565b600082601f830112613a9657600080fd5b81356020613aab613aa683613a62565b6135b5565b82815260059290921b84018101918181019086841115613aca57600080fd5b8286015b84811015613ae55780358352918301918301613ace565b509695505050505050565b600082601f830112613b0157600080fd5b81356020613b11613aa683613a62565b82815260059290921b84018101918181019086841115613b3057600080fd5b8286015b84811015613ae557613b45816138f9565b8352918301918301613b34565b600082601f830112613b6357600080fd5b81356020613b73613aa683613a62565b82815260059290921b84018101918181019086841115613b9257600080fd5b8286015b84811015613ae55780356001600160401b03811115613bb55760008081fd5b613bc38986838b01016135e5565b845250918301918301613b96565b600080600080600080600060e0888a031215613bec57600080fd5b87356001600160401b0380821115613c0357600080fd5b613c0f8b838c01613a85565b985060208a0135915080821115613c2557600080fd5b613c318b838c01613af0565b975060408a0135915080821115613c4757600080fd5b613c538b838c01613b52565b965060608a0135915080821115613c6957600080fd5b613c758b838c016135e5565b955060808a0135915080821115613c8b57600080fd5b613c978b838c016135e5565b945060a08a0135915080821115613cad57600080fd5b613cb98b838c01613a85565b935060c08a0135915080821115613ccf57600080fd5b506138ea8a828b01613a85565b60008060408385031215613cef57600080fd5b8235915060208301356001600160401b03811115613d0c57600080fd5b613d18858286016135e5565b9150509250929050565b634e487b7160e01b600052602160045260246000fd5b60048110613d5657634e487b7160e01b600052602160045260246000fd5b9052565b8d81526001600160a01b038d1660208201526001600160a01b038c1660408201526101a060608201526000613d936101a083018d613755565b8281036080840152613da5818d613755565b905082810360a0840152613db9818c613755565b90508960c08401528860e084015287610100840152613ddc610120840188613d38565b828103610140840152613def8187613755565b610160840195909552505061018001529b9a5050505050505050505050565b600080600080600080600080610100898b031215613e2b57600080fd5b88359750613e3b60208a016138f9565b965060408901356001600160401b0380821115613e5757600080fd5b613e638c838d016135e5565b975060608b0135915080821115613e7957600080fd5b613e858c838d016135e5565b965060808b0135915080821115613e9b57600080fd5b613ea78c838d016135e5565b955060a08b0135945060c08b0135935060e08b0135915080821115613ecb57600080fd5b50613ed88b828c016135e5565b9150509295985092959890939650565b60006101a0825184526020830151613f0b60208601826001600160a01b03169052565b506040830151613f2660408601826001600160a01b03169052565b506060830151816060860152613f3e82860182613755565b91505060808301518482036080860152613f588282613755565b91505060a083015184820360a0860152613f728282613755565b91505060c083015160c085015260e083015160e085015261010080840151818601525061012080840151613fa882870182613d38565b50506101408084015185830382870152613fc28382613755565b610160868101519088015261018095860151959096019490945250929392505050565b83151581526060602082015260006140006060830185613ee8565b90508215156040830152949350505050565b6000806040838503121561402557600080fd5b61402e836138f9565b915060208301356001600160401b03811115613d0c57600080fd5b6000806040838503121561405c57600080fd5b50508035926020909101359150565b6000806040838503121561407e57600080fd5b614087836138f9565b946020939093013593505050565b6000602082840312156140a757600080fd5b613598826138f9565b6020815260006135986020830184613ee8565b600082516140d5818460208701613731565b9190910192915050565b600181811c908216806140f357607f821691505b602082108103612f3957634e487b7160e01b600052602260045260246000fd5b601f821115610e8b57600081815260208120601f850160051c8101602086101561413a5750805b601f850160051c820191505b8181101561415957828155600101614146565b505050505050565b81516001600160401b0381111561417a5761417a61359f565b61418e8161418884546140df565b84614113565b602080601f8311600181146141c357600084156141ab5750858301515b600019600386901b1c1916600185901b178555614159565b600085815260208120601f198616915b828110156141f2578886015182559484019460019091019084016141d3565b50858210156142105787850151600019600388901b60f8161c191681555b5050505050600190811b01905550565b6040815260006142336040830185613755565b90508260208301529392505050565b634e487b7160e01b600052603260045260246000fd5b634e487b7160e01b600052601160045260246000fd5b60006001820161428057614280614258565b5060010190565b6020808252601a908201527f436572746966696361746520646f6573206e6f74206578697374000000000000604082015260600190565b600081546142cb816140df565b600182811680156142e357600181146142f857614327565b60ff1984168752821515830287019450614327565b8560005260208060002060005b8581101561431e5781548a820152908401908201614305565b50505082870194505b5050505092915050565b600061359882846142be565b60008161434c5761434c614258565b506000190190565b6020815260006135986020830184613755565b8082018082111561065357610653614258565b8181038181111561065357610653614258565b818103614398575050565b6143a282546140df565b6001600160401b038111156143b9576143b961359f565b6143c78161418884546140df565b6000601f8211600181146143fb57600083156143e35750848201545b600019600385901b1c1916600184901b178455614460565b600085815260209020601f19841690600086815260209020845b838110156144355782860154825560019586019590910190602001614415565b50858310156144535781850154600019600388901b60f8161c191681555b50505060018360011b0184555b5050505050565b604081526000808454614479816140df565b806040860152606060018084166000811461449b57600181146144b5576144e6565b60ff1985168884015283151560051b8801830195506144e6565b8960005260208060002060005b868110156144dd5781548b82018701529084019082016144c2565b8a018501975050505b5050505050602092909201929092529291505056fe5bb0bf1fabd5e975fc7a4520766d9e86e0eb281f8c7c44fcd3dfe60a11e786ca9e1688b53537f356172ce07f39e129155063957163c5f9462d4d9e55b228b06ca49807205ce4d355092ef5a8a18f56e8913cf4a201fbe287825b095693c21775a26469706673582212202a2802860d5063d32784a9c17f91ac0720e1ac6e449fcd677eb905ed0b98bb4a64736f6c63430008140033",
  "linkReferences": {},
  "deployedLinkReferences": {}
}